:020000040800F2
:10000000C0D90020FD92000805930008079300085E
:10001000099300080B9300080D93000800000000EE
:100020000000000000000000000000000F93000826
:1000300011930008000000002F790008477A00089B
:1000400017930008179300081793000817930008E8
:1000500017930008179300081793000817930008D8
:1000600017930008179300081793000817930008C8
:10007000179300081793000883EF000833F4000873
:10008000179300085BEB000817930008179300080C
:100090001793000817930008179300081793000898
:1000A0001793000817930008179300081793000888
:1000B0001793000817930008179300081793000878
:1000C0001793000817930008179300081793000868
:1000D00017930008E7E700088FEC0008B9F0000864
:1000E0001793000817930008179300081793000848
:1000F0001793000817930008179300081793000838
:100100001793000817930008179300081793000827
:1001100067F5000817930008179300081793000865
:100120001793000817930008179300081793000807
:1001300017930008179300081793000817930008F7
:1001400017930008179300081793000817930008E7
:100150001793000817930008B1E6000817930008EA
:1001600017930008179300081793000817930008C7
:1001700017930008179300081793000817930008B7
:100180001793000800F002F800F05AF80AA090E86F
:10019000000C82448344AAF10107DA4501D100F042
:1001A0004FF8AFF2090EBAE80F0013F0010F18BFB5
:1001B000FB1A43F001031847C8FD0000E8FD0000EA
:1001C0000A444FF0000C10F8013B13F0070408BF7D
:1001D00010F8014B1D1108BF10F8015B641E05D01B
:1001E00010F8016B641E01F8016BF9D113F0080FD0
:1001F0001EBF10F8014BAD1C0C1B09D16D1E58BF62
:1002000001F801CBFAD505E014F8016B01F8016B98
:100210006D1EF9D59142D6D370470000002300240B
:1002200000250026103A28BF78C1FBD8520728BF06
:1002300030C148BF0B6070471FB51FBD10B510BD62
:100240000FF076FB1146FFF7F7FF00F01AF80FF0FA
:1002500094FB03B4FFF7F2FF03BC0FF09BFB00001D
:1002600010B506F018F906F01DF910BD00F063F89E
:1002700001F0D2FE04F039FB02E0322005F0C7FCA9
:10028000FBE7002407F032FB0446FFF7E9FF04F028
:10029000D3FB06F03DF90A23084A0021AFF23300F0
:1002A00006F018F9204607F025FB06F02BF902E0CE
:1002B0000A2005F0ACFCFBE7704700008821002015
:1002C00001202B4908700320487025200881294807
:1002D0004860002008832849086070472548C06AA4
:1002E00000687047012022490877012120484177A2
:1002F0000621818421490162002181860020204954
:10030000086070471D48C06A00687047012018499E
:1003100081F838000221164880F839100621A0F82B
:1003200040101849C1630021A0F8501070471548CB
:10033000C06A0068704710B5FFF7C2FFFFF7D2FF31
:10034000FFF7E4FF0723104A09491C310F4808F062
:100350005DFC08230E4A06490C4808F057FC0523AB
:100360000C4A03493831094808F050FC10BD000020
:100370008C2100200C000020040000200407002035
:10038000FC060020300800202053002035DB000848
:10039000DC390020CC6B0020F94A06CAC0E9001203
:1003A00070470EB5F74A07CA8DE807004FF4FA61A7
:1003B000F54805F014FC012809D10021F24805F0A8
:1003C0000EFC24200290694600200DF05BFA0EBD61
:1003D0003EB5EC4A0C3207CA8DE807000024EB4812
:1003E000007811282DD2DFE800F0092D4C6B8AA986
:1003F000C8F1EFEEEDECEBEAE9E8E700E44801686C
:10040000E44805F0ECFB01281BD1E348007800F03C
:10041000010088B1E0480078C0F3C00060B9DE4850
:10042000006820F00100DC490860012401200290EE
:100430000021D84805F0D3FBD4480078401CD349AC
:10044000087006E2D2480168D24805F0C8FB0128CE
:1004500016D1D1480078C0F3400060B1CE480068A2
:1004600020F00200CC490860012404200290002101
:10047000C84805F0B4FBC5480078401CC349087063
:10048000E7E1C3480168C34805F0A9FB012816D17C
:10049000C1480078C0F3800060B1BF48006820F018
:1004A0000400BD4908600124062002900021B948DB
:1004B00005F095FBB5480078401CB4490870C8E1C8
:1004C000B3480168B34805F08AFB012816D1B24849
:1004D0000078C0F3C00060B1AF48006820F00800A9
:1004E000AD4908600124082002900021A94805F0C8
:1004F00076FBA6480078401CA4490870A9E1A448EE
:100500000168A44805F06BFB012816D1A2480078C9
:10051000C0F3001060B1A048006820F010009E49B0
:10052000086001240A20029000219A4805F057FB38
:1005300096480078401C954908708AE19448016803
:10054000944805F04CFB012816D193480078C0F37D
:10055000401060B19048006820F020008E4908608B
:1005600001240C20029000218A4805F038FB8748BE
:100570000078401C854908706BE185480168854812
:1005800005F02DFB012816D183480078C0F38010B8
:1005900060B18148006820F040007F490860012474
:1005A0000F20029000217B4805F019FB7748007866
:1005B000401C764908704CE12EE10EE1EEE0BFE010
:1005C0009FE07FE05FE03FE01FE0FFE770480168E9
:1005D000704805F004FB012816D16F480078C0F37D
:1005E000C01060B16C48006820F080006A49086063
:1005F0000124112002900021664805F0F0FA6348BA
:100600000078401C6149087023E161480168614835
:1006100005F0E5FA012816D15F480088C0F30020F4
:1006200060B15D48006820F480705B490860012477
:10063000132002900021574805F0D1FA5348007862
:10064000401C5249087004E151480168514805F0C6
:10065000C6FA012816D150480088C0F3402060B186
:100660004D48006820F400704B49086001241520B3
:1006700002900021474805F0B2FA44480078401C37
:1006800042490870E5E042480168424805F0A7FA8F
:10069000012816D140480088C0F3802060B13E4850
:1006A000006820F480603C49086001241720029013
:1006B0000021384805F093FA34480078401C33494B
:1006C0000870C6E032480168324805F088FA01280F
:1006D00016D131480088C0F3C02060B12E480068B0
:1006E00020F400602C4908600124192002900021A8
:1006F000284805F074FA25480078401C2349087002
:10070000A7E023480168234805F069FA012816D1BB
:1007100021480088C0F3003060B11F48006820F411
:1007200080501D49086001241B20029000211948B7
:1007300005F055FA15480078401C1449087088E007
:1007400013480168134805F04AFA012816D11248E7
:100750000088C0F3403060B10F48006820F40050BA
:100760000D49086001241D2002900021094805F070
:1007700036FA06480078401C0449087069E0000019
:10078000500900203CFC0008740900207809002072
:10079000800900207C0900206C090020F8480168CD
:1007A000F84805F01CFA012816D1F7480088C0F374
:1007B000803060B1F448006820F48040F24908605D
:1007C00001241F2002900021EE4805F008FAEF48AE
:1007D0000078401CED4908703BE0E9480168E948B1
:1007E00005F0FDF9012816D1E7480088C0F3C030B4
:1007F00060B1E548006820F40040E3490860012446
:10080000262002900021DF4805F0E9F9DF48007852
:10081000401CDE4908701CE0D9480168D94805F041
:10082000DEF9012814D1D8480068C0F3004060B157
:10083000D548006820F48030D3490860012428207E
:1008400002900021CF4805F0CAF90020CF49087076
:1008500000BF00BF012C03D1694600200DF012F843
:100860003EBD1FB5CA4A07CA01AB07C3C948407895
:1008700020B101280ED0022833D119E001F0A2FCEA
:1008800001A900200CF0FEFFC2484078401CC1497D
:1008900048702AE001F0E5FC0420029001A9002044
:1008A0000CF0F0FFBB484078401CBA4948701CE08F
:1008B00041F28831B84805F092F970B10021B6488C
:1008C00005F08DF966200090009802F0EAFA1B20EE
:1008D000029001A900200CF0D5FF0020AD4948701E
:1008E00003E00020AB49487000BF00BFAB48007870
:1008F000022802D10020A94908701FBD30B591B06F
:10090000442168460EF0EAFF002403F0E5FC0446AB
:10091000012004EB4401A24A126802F8210004EB12
:1009200044009F49096801EB80008472684604F026
:100930001EFA04EB44009A49096801EB8000DDF8D7
:10094000021040F8011FDDF80610416002F0BCFC07
:1009500005462A460021204604F0FDFB9148006828
:100960000078401C8F490968087011B030BD30B55F
:100970008DB0874A0C3207CA0AAB07C300241C217A
:1009800003A80EF0ABFF83484078062874D2DFE856
:1009900000F003256385A3AF0021834805F01FF90C
:1009A00002207E490870002004F0EFF90020ADF825
:1009B00024000A2207A968460EF034FF03A80FC8D6
:1009C00002F061FB2A200B900AA900200CF05AFFCC
:1009D00070484078401C6F494870A9E000210846E3
:1009E00004F0A6F9012004F0D0F90446032C01D04C
:1009F000022C03D1002004F0C8F92CE0012C15D101
:100A0000002004F0C2F90720ADF824000A2207A94B
:100A100068460EF007FF03A80FC802F034FB2A2037
:100A20000B900AA900200CF02DFF14E0042C12D129
:100A3000002004F081F9002004F0A7F902F044FC42
:100A4000012803D104205349487004E051484078FC
:100A5000401C504948706BE00121002004F068F907
:100A6000012004F092F90446032C01D0022C04D199
:100A7000002004F08AF910E059E0042C0DD1012087
:100A800004F05AF9002004F080F9002004F057FA2D
:100A900040484078401C3F49487049E0012100200F
:100AA00004F046F9012004F04AFA0446032C01D070
:100AB000022C03D1002004F068F90CE0042C0AD1C8
:100AC000012004F039F9002004F039FA3148407867
:100AD000401C304948702BE020200B900AA90120CF
:100AE0000CF0D0FE2B484078401C2A4948701FE08B
:100AF00004F012F9B8B1FFF701FF00200B901920A4
:100B000001F0A3FA0AA900200CF0BCFE21484078AD
:100B1000401C204948701C48006820F0080008303C
:100B20001949086002E004201A49487000E000BF3B
:100B300000BF41F288311C4805F051F888B100200F
:100B4000164908700CF0DCFC054601F07EFA002026
:100B50000B900AA90CF096FE002004F016F904F0A0
:100B6000E3F80DB030BD3EB5094A183207CA8DE82A
:100B70000700002407484078C0B101283DD11FE09C
:100B8000800900207C0900206C09002078090020E1
:100B900054FC00085009002084090020600900204E
:100BA00064090020680900208809002069460120A6
:100BB0000CF068FEF7484078401CF64948701DE08C
:100BC00004F0AAF8A8B904F0AFF80020F2490870C0
:100BD0000CF096FC0446204601F037FA0020019004
:100BE00069460CF04FFEEB484078401CE9494870DC
:100BF00002E00020E749487000E000BF00BF3EBDB2
:100C000010B58CB0E54A07CA09AB07C3142104A884
:100C10000EF064FE002400200090019002900390EA
:100C2000DC48407805287CD2DFE800F0031222334C
:100C30003F000020DA49088001F046FB09A90020A6
:100C40000CF020FED3484078401CD2494870B5E0F3
:100C5000D348008801F01CFC08200A9009A9002054
:100C60000CF010FECB484078401CCA494870A5E003
:100C700001F09DFB06200A9009A900200CF002FE5D
:100C8000C84801F0B7FBC3484078401CC1494870D0
:100C900094E007200A9009A900200CF0F3FDBD485C
:100CA0004078401CBB49487088E004A801F0A2FBD2
:100CB000082206A9BB4808300EF043FDB0B101F090
:100CC00011FBB848069981600799C16005200A9018
:100CD00009A900200CF0D6FD02E0032004F097FFE4
:100CE000002108460CF031FE0028F6D101F08AFB05
:100CF00000285ED002E00A2004F089FF00210846A7
:100D00000CF023FE0028F6D1684602F0B8FC082259
:100D1000A54906A80EF015FD38B10822694606A8B7
:100D200000E04AE00EF00DFD80B9132001F08DF9CE
:100D300000200A9009A90CF0A5FD00209849088020
:100D400094484078401C9349487035E00822974900
:100D500006A80EF0F6FC28B1082202A906A80EF09B
:100D6000F0FC00BB03F094FA01280BD0022807D056
:100D7000032809D1002404F002F8FFF7BFFD03E0C7
:100D8000142401E0152400BF00BF204601F05DF9E6
:100D900000200A9009A90CF075FD7E484078401C9F
:100DA0007C49487008E001207D49088079494870F5
:100DB00002E003207749487000E000BF00BF0CB09C
:100DC00010BD00B587B0754A6C3207CA04AB07C3C3
:100DD00000200390029076A000680190754800788A
:100DE00020B1012811D0022839D118E0039802F06F
:100DF00007FA2C20059004A900200CF043FD6D4853
:100E00000078401C6B4908702AE004A900200CF00F
:100E100039FD68480078401C6649087020E002F0FF
:100E2000F5F90390BDF80C00012814D100206149A8
:100E30000870584948700846007813280ED1019868
:100E40000290029802F0A6FC02F0A9FC002101A881
:100E500003F01EFE02E001205649087000E000BFCA
:100E600000BF07B000BD10B598B04C490C31D1E9B6
:100E700000028968CDE9162115900020119012908A
:100E8000139014900F9010904BA2D2E9001092682A
:100E9000CDE90D020C910020089009900A900B906A
:100EA00005900690079004903A4840780A286FD23F
:100EB000DFE800F0051A26323E4A5662889402F0B6
:100EC00064FC0490002104A803F0E2FD02F0BBFCE6
:100ED0000920169015A900200CF0D4FC2D4840786C
:100EE000401C2C494870D5E10B20169015A9002014
:100EF0000CF0C8FC27484078401C26494870C9E1DE
:100F00000D20169015A900200CF0BCFC214840785B
:100F1000401C20494870BDE10E20169015A9002004
:100F20000CF0B0FC1B484078401C1A494870B1E1F5
:100F30001020169015A900200CF0A4FC154840784C
:100F4000401C14494870A5E10C20169015A90020FA
:100F50000CF098FC0F484078401C0E49487099E10D
:100F60000F20169015A900200CF08CFC0948407841
:100F7000401C084948708DE11120169015A90020E9
:100F80000CF080FC03484078401C0249487081E125
:100F90007FE10000500900206009002078FC000873
:100FA0008C090020207D00208E0900209609002059
:100FB000FFFFFFFFB10900201F1C1F1E1F1E1F1F68
:100FC0001E1F1E1F0A20169015A900200CF05AFCA7
:100FD000F9484078401CF84948705BE101F021FB7A
:100FE00010B901F0E4FAA8B10B20169015A9002061
:100FF0000CF048FC02E00A2004F009FE002108463B
:101000000CF0A3FC0028F6D10D20169015A90020A5
:101010000CF038FC01F0A6FB18B901F06DFB0028BC
:101020003ED001F09CFB41F28831884202DC01F0A5
:1010300078FB30B301F075FB38B12B2001F005F8D7
:101040000020169015A90CF01DFC02F060FA044671
:1010500001F082FB08A802F0EFF908A801F03AFBC2
:1010600002E00A2004F0D3FD002108460CF06DFCDC
:101070000028F6D10E20169015A900200CF002FCD5
:101080000EE001F06CFB044602F044FA02F045FA6F
:1010900008A801F028FB08A802F0D7F902F0DEF951
:1010A00001F0F5FB30B301F0EFFBB0F5167F1ADD70
:1010B00002F089FA044601F0E4FB02F066FB0390BB
:1010C00001F085FB02E00A2004F0A1FD00210846A2
:1010D0000CF03BFC0028F6D11020169015A900203A
:1010E0000CF0D0FB06E001F0CFFB044602F06EFAF4
:1010F00002F06FFA01F07DFB90B301F099FBD0B9DB
:1011000002F061FA044601F0BCFB02F03EFB0390E2
:1011100001F05DFB02E00A2004F079FD00210846A1
:101120000CF013FC0028F6D11020169015A9002011
:101130000CF0A8FB14E001A801F041FB01A807C8CE
:1011400005AB07C3082204A905A804F054FE0498BF
:1011500002F020FB02F023FB002104A803F098FC1E
:1011600001F0DAF900287BD001F0C7F911A801F0ED
:10117000CBF911A8007A303811A909893022C2EBC5
:10118000212101EB810100EB410080B2ADF83C0070
:10119000BDF84E003038BDF84E10C2EB212101EBF6
:1011A000810100EB4100C0B28DF83E00BDF8500057
:1011B0003038BDF85010C2EB212101EB810100EB6A
:1011C0004100C0B28DF83F00BDF844003038BDF892
:1011D0004410C2EB212101EB810100EB4100C0B2C0
:1011E0008DF84000BDF846003038BDF84610C2EB1F
:1011F000212101EB810100EB4100C0B28DF84100DB
:10120000BDF848003038BDF84810C2EB212101EB91
:10121000810100EB4100C0B28DF842009DF8400012
:1012200018281ADA9DF841003C2816DA9DF8420089
:101230003C2812DA9DF83E0078B19DF83E000C285B
:101240000BDC9DF83F0040B19DF83F109DF83E003B
:10125000401E0CAA105C814213DD01F030F903E05E
:1012600013E00A2004F0D3FC002108460CF06DFBCB
:101270000028F6D10920169015A900200CF002FBD9
:1012800003E0DDE90F0105F06BF905204A494870DC
:1012900000E000BF00BFFFF794FD18B010BD70B5AF
:1012A00092B0002420210AA80EF018FB434A07CA76
:1012B00007AB07C300254048407830B101280DD066
:1012C00002285AD003287DD164E000203C490880E0
:1012D00039484078401C384948709AE0002423E09F
:1012E00002E00A2004F093FC002108460CF02DFBDC
:1012F0000028F6D132490988214488B20AA903F0AE
:10130000AFFF40B12E4800882044401C81B20AA89B
:1013100001F0F0FA01E001F0E7FA099407A90020D2
:101320000CF0B0FA601CC4B20A2CD9DB03F098FEB2
:1013300008B9012006E003F093FE401E0A2190FB4D
:10134000F1F0401C85B21E4800880A2190FBF1F0A4
:10135000401C86B200231A462946304601F0CBFCD9
:10136000132008900020099007A90CF08BFA12486E
:101370004078401C104948704BE014200890002031
:10138000099007A90CF07EFA0B484078401C0A49E6
:1013900048703EE00DF11A0106A801F0C6FCBDF848
:1013A0001800B8B1064800880A280CDD04480088F7
:1013B0000A380349088009E05009002090FC000821
:1013C0009E09002021E00020F84908800120F8490A
:1013D000487019E0BDF81A0098B103F041FEF349D6
:1013E00009880A31884208DDF04800880A30EF4950
:1013F00008800120EE49487006E00220EC49487060
:1014000002E00220EA49487003E00020E849487001
:1014100000BF00BF12B070BD3EB5E64A07CA8DE8F6
:101420000700E348407848B90021E34804F0D7FBBF
:10143000DF484078401CDE49487000E000BF00BF34
:101440004FF4FA61DC4804F0CAFB60B10021DA48CD
:1014500004F0C5FB0CF054F8044600F0F6FD6946B4
:1014600000200CF00FFA3EBD0EB5D24A0C3207CA6E
:101470008DE80700CE48407820B1012812D002281C
:1014800039D11BE00021CD4804F0A9FB01F08AFC12
:10149000694600200CF0F6F9C5484078401CC44964
:1014A000487029E016200190694600200CF0EAF906
:1014B000BF484078401CBE4948701DE001F076FCF2
:1014C000A8B101F06FFC03F0D6FD002003F0D7FDBA
:1014D00000200190022000F0B8FD694600200CF0C9
:1014E000D1F9B3484078401CB149487002E001206E
:1014F000AF49487000E000BF00BF41F28831AF48FB
:1015000004F06DFB58B10021AC4804F068FB0220E8
:1015100000F09BFD0020019069460CF0B3F90EBD70
:101520000EB5A44A183207CA8DE80700A0484078D3
:1015300020B1012812D0022838D11BE00021A04898
:1015400004F04DFB01F02EFC694600200CF09AF9E6
:1015500097484078401C9649487028E01720019031
:10156000694600200CF08EF991484078401C904963
:1015700048701CE001F043FCA0B101F03CFC0120EC
:1015800090490968487000200190132000F05DFD2B
:10159000694600200CF076F985484078401C844963
:1015A000487002E001208249487000E000BF00BF9F
:1015B00043F69821824804F012FB58B1002180487C
:1015C00004F00DFB132000F040FD0020019069465F
:1015D0000CF058F90EBD1FB5764A243207CA01AB8C
:1015E00007C3002000907248407820B1012812D033
:1015F00002284BD11BE00021734804F0F0FA01F0FF
:1016000023FC01A900200CF03DF969484078401CFA
:10161000674948703BE01920029001A900200CF0B6
:1016200031F963484078401C614948702FE06846B2
:1016300001F011FCBDF800000C2803DC61480068D3
:10164000807818B100205A4948701EE0BDF80200A9
:10165000C0B101205B4909688870BDF80000401ED8
:10166000C1B258480068C170132000F0EEFC0020A1
:10167000029001A90CF006F94D484078401C4C49F5
:10168000487002E001204A49487000E000BF00BFF6
:1016900043F698214C4804F0A2FA58B100214A4878
:1016A00004F09DFA132000F0D0FC0020029001A964
:1016B0000CF0E8F81FBD1FB53E4A303207CA01AB37
:1016C00007C33B48407870B966200090009801F04D
:1016D000E8FB01A900200CF0D5F835484078401C03
:1016E0003349487003E000203149487000BF00BF13
:1016F0001FBD00B593B02F4A3C3207CA10AB07C3D9
:1017000014210BA80EF0EAF8142106A80EF0E6F852
:101710002748407806287DD2DFE800F0030C253DFD
:101720005A6800202949087021484078401C204907
:101730004870D6E006A801F0CDFB24480078ADF84B
:101740002A000A98009006A80FC801F0D2FB2820B2
:10175000119010A900200CF095F815484078401C15
:1017600013494870BDE00BA801F0B4FB0020ADF8B0
:101770003C000F9800900BA80FC801F02FFC272009
:10178000119010A900200CF07DF809484078401C09
:1017900007494870A5E010A900200CF073F8044830
:1017A0004078401C024948709BE000009E090020E0
:1017B000500900209CFC0008A0090020A40900207A
:1017C000A809002068090020AC090020B009002009
:1017D00001F0C2FB2820119010A900200CF052F853
:1017E000FE484078401CFD4948707AE00BA801F0A3
:1017F000FFFBBDF83C0001286ED1BDF82C00BDF800
:101800003410884261D1BDF82E10BDF836008142F7
:101810005BD100E064E0BDF83010BDF838008142D3
:1018200053D1BDF83210BDF83A0081424DD1BDF818
:101830002C00B0F5405F48DBBDF83400B0F5405FE8
:1018400043DB02A801F01BFFE4480078072817D10A
:10185000DDE90B01CDE9020102A80FC801F022FF6A
:1018600001F027FF132000F0F0FB0020119010A9D9
:101870000CF008F8D9484078401CD84948702EE050
:10188000082202A90BA80DF05CFFB8B1DDE90B013D
:10189000CDE9040102A80FC801F004FF01F009FF1F
:1018A000132000F0D2FB0020119010A90BF0EAFFEA
:1018B000CA484078401CC949487010E00220C84915
:1018C00008700120C549487009E00220C449087029
:1018D0000120C249487002E00320C049487000E07E
:1018E00000BF00BF13B000BD10B598B0BD4A07CA15
:1018F00015AB07C3AFF6481000681490AFF6501050
:10190000006813900020129000241190109018216C
:101910000AA80DF0E3FFB14840780C287ED2DFE83A
:1019200000F006313D47FEFDFCFBFAF9F8F7AE4842
:10193000002101600068099001F097FC119801F006
:101940009CFB0020A94908701A21A9480DF0A4FFAA
:101950000120A74908830846016900914169019166
:10196000008BADF808001A22A14903A80DF015FF5D
:1019700003A80FC801F087FB98484078401C97499E
:10198000487056E22A20169015A900200BF07AFF25
:1019900092484078401C914948704AE215A90020BD
:1019A0000BF070FF8D484078401C8C49487040E235
:1019B00003A801F077FB1A2203A98D480DF0EDFE74
:1019C00001F04EFC099088480999016001F072FB12
:1019D00060B901F0AEFB48B98548808A00287DD007
:1019E0008348808A814909788842F8D08048808A73
:1019F000032802DD00207E4988827D48C08A0128B4
:101A000002DD00207A49C8827948007D7749087054
:101A100008460078012806D0022800E008E208D035
:101A2000032812D10BE001206F4908800020488074
:101A30000BE002206C4908800020488005E000206F
:101A4000694908800220488000BF00BF01F00DFBFB
:101A5000119001F045FB58B303206349088001F061
:101A600082FB10B10120604948806148808A0328C8
:101A700002D001F078FB18B1042058494870D8E131
:101A800001205B4908830846016900914169019181
:101A9000008BADF808001A22554903A80DF07DFE11
:101AA00003A80FC801F0EFFA01204C4948701FE06D
:101AB0004F48002101604160018101204C490883A9
:101AC00008460169009141690191008BADF8080059
:101AD0001A22474903A80DF060FE00E09EE003A82B
:101AE0000FC801F0D0FA01203C4948708DF8400041
:101AF00001F039FBC0B301203B49488001F0F0FA06
:101B000010B10320384908803948808A012807E04D
:101B100076E169E148E11AE1EBE0DEE0BBE081E07B
:101B200006D03348808A022802D001F0D9FA18B1D1
:101B300004202A4948707CE101202D490883084689
:101B40000169009141690191008BADF808001A22EA
:101B5000274903A80DF021FE03A80FC801F093FA4E
:101B600001201E4948701FE0FFE721480A3000218C
:101B700001604160018101201D4908830846016917
:101B8000009141690191008BADF808001A221849B3
:101B900003A80DF002FE03A80FC801F074FA01209B
:101BA0000E4948708DF841009DF84000012803D18E
:101BB0009DF84400012807D09DF84500012830D148
:101BC0009DF8410001282CD100208DF840008DF8AF
:101BD0004100119801F051FA03200BE05009002058
:101BE000B0090020F0FC0008BA090020B809002064
:101BF000327D0020FB490883084601690091416954
:101C00000191008BADF808001A22F64903A80DF0E7
:101C1000C4FD03A80FC801F036FA02E00220F24921
:101C2000487006E11A22EF49F0480DF0B6FDED4884
:101C3000808A30B101280BD002280AD003280ED1A7
:101C400000E000BF082214A9E64804F0D4F807E039
:101C500006E001F09AFD12901298149000E000BF87
:101C600000BF002114A802F013FFDE48808A032879
:101C700007D000201390082213A9DA480A3004F094
:101C8000BAF8002113A802F00BFFD7484078401C97
:101C9000D5494870CDE00220D4490883084601693F
:101CA000009141690191008BADF808001A22CF49DB
:101CB00003A80DF072FD03A80FC801F0E4F92A2073
:101CC000169015A900200BF0DDFD03F02DF8C64895
:101CD0004078401CC4494870ABE02020169015A9FC
:101CE00001200BF0CFFDC0484078401CBE49487031
:101CF0009FE003F011F830B3002003F046F8002114
:101D0000BB4803F06CFF0420B8490883084601690A
:101D1000009141690191008BADF808001A22B34986
:101D200003A80DF03AFD03A80FC801F0ACF92A2072
:101D3000169015A900200BF0A5FDAB484078401C7B
:101D4000A949487002E00620A749487071E041F2B5
:101D50008831A74803F043FFE8B90321002002F0CF
:101D6000E7FF012003F011F80446052C08D10620F6
:101D70009E4908839C484078401C9B49487012E06B
:101D8000012C10D105209949088397484078401CC0
:101D90009549487007E005209449088392484078A7
:101DA000401C9149487044E0002002F0EEFF8F484B
:101DB0000169009141690191008BADF808001A2278
:101DC0008A4903A80DF0E9FC03A80FC801F05BF9EC
:101DD0002A20169015A900200BF054FD8248407867
:101DE000401C8149487024E02020169015A901204C
:101DF0000BF048FD7C484078401C7B49487018E057
:101E000004A802F055FE182204A90AA80DF00AFD44
:101E100002F082FF40B99DF82C0028B102F084FF47
:101E200005207149487002E00A206F49487000E0BF
:101E300000BF00BFFEF7C5FF6E480068099001F0C3
:101E400014FA2D20169015A900200BF01BFD18B0D8
:101E500010BD10B50020644908704870664840689D
:101E6000486066480021017001F040FD6449086047
:101E700001F040FD6349086063480021016010BD26
:101E80003EB5624A07CA8DE8070000245B48007827
:101E9000002853D1FEF736FAA8B964215C4803F054
:101EA0009EFE58B100215A4803F099FE4E48007832
:101EB0002D2803D0694601200BF0E4FC0020514995
:101EC0000968C88003E001204E490968C88002F013
:101ED00023FF98B3444800782D282FD002F024FF28
:101EE00048480068007A08BB02F0D2F9012812D0F5
:101EF000022806D0032818D1012040490870182470
:101F000013E014244048006820F4807000F58070CD
:101F10003D49086009E015243B48006820F4006052
:101F200000F500603849086000BF00BF204600F09F
:101F30008CF80020019069460BF0A4FC3EBD00B572
:101F400085B0324A0C3207CA02AB07C3684604F0B8
:101F5000B7FBDDE9000100F0AEF802A900200BF0AC
:101F600091FC05B000BD3EB50446284A183207CAA8
:101F70008DE80700204600F068F8694600200BF065
:101F800081FC3EBD0EB5214A243207CA8DE8070008
:101F9000FFF75FFF4FF4486003F039FEFEF701FAE8
:101FA00000BF0BF0B0FA03F085FC012803D1FFF766
:101FB00067FF02F02EFCFEF70BFA4FF496711548FE
:101FC00003F00DFE48B1694600200BF05BFC0021D8
:101FD000104803F004FEFFF7B2FF142003F017FED1
:101FE000DFE70000327D0020500900204C7D0020FA
:101FF000B4090020BA0900207CFB00086009002019
:1020000064090020680900206C090020FCFC00081D
:10201000C0090020C409002010B50C23024A002189
:10202000024804F057FA10BDB47C0020851F000858
:102030000021F84801784FF6FF7000EA0121F548C9
:1020400040780143F4480088704701460812F34A7B
:1020500010705170012070475A2100F8011B0121B6
:1020600000F8011BED49097800F8011BEB4949789C
:1020700000F8011B704710B503460C461A460BB911
:10208000002010BD84201080822090700220D0702B
:10209000101DFFF7E1FF0120F3E702460B46114652
:1020A0000AB900207047142008808320887001201E
:1020B000C87000BFF6E703B543F23020D849C880A6
:1020C000BDF800000A2190FBF1F201FB1200303054
:1020D000BDF800100A2291FBF2F1303100EB012033
:1020E00081B2CF4801819DF802000A2190FBF1F2F4
:1020F00001FB120030309DF802100A2291FBF2F130
:10210000303100EB0120C64948819DF803000A21C7
:1021100090FBF1F201FB120030309DF803100A220F
:1021200091FBF2F1303100EB0120BD4988819DF82F
:1021300004000A2190FBF1F201FB120030309DF8FF
:1021400004100A2291FBF2F1303100EB0120B44976
:1021500008809DF805000A2190FBF1F201FB1200B6
:1021600030309DF805100A2291FBF2F1303100EB7E
:102170000120AB4948809DF806000A2190FBF1F24E
:1021800001FB120030309DF806100A2291FBF2F19B
:10219000303100EB0120A249888001200CBD70B5D0
:1021A00005460E462C460DB9002070BD4FF48850F0
:1021B00020808220A0700720E07020460BF07BFA80
:1021C0000120F2E770B50024002501F091FB0646DE
:1021D00000BF30E0305D062818D006DC062823D288
:1021E000DFE800F010161218191AFD281AD004DCC6
:1021F000072812D0FC2817D110E0FE2811D0FF28A4
:1022000012D10CE0002510E001250EE005250CE0C0
:1022100002250AE000BF00BF00BF00BF00BF0325CA
:1022200003E000BF042500E000BF00BF7D4820F8A8
:102230001450601CC4B20C2CCCDB70BD70B50546CC
:102240000E462C460DB9002070BD41F210102080C2
:102250008220A0700C20E07020460BF02CFA0120A8
:10226000F2E710B501F058FB6E49088301F071FBED
:102270006C49488302F028FA6A49888302F07FF9A2
:10228000012802D103206749888302F075F90128EB
:1022900002D102206349888302F019FA6149C88398
:1022A00010BD70B505460E462C460DB9002070BD18
:1022B0004FF4895020808220A0700420E0702046D6
:1022C0000BF0F9F90120F2E72021002000BF06E021
:1022D00001EB0122544B23F81020421CD0B20428F9
:1022E000F6DB70477EB500204F4B08334E4900BFE8
:1022F00003E020240C54441CE0B20828F9DB002041
:1023000004E01C5C0DF80040441CE0B20728F8DB38
:1023100000200FE0012404EB40041DF804201DF808
:102320001040012505EB40050DF805400DF8102083
:10233000441CE0B20428EDDB002008E01DF800405A
:10234000FF2C00D105E02A240C54441CE0B20828DC
:10235000F4DB00BF082806DA03E020240C54441CF8
:10236000E0B20828F9DB00200BE001EB40046278C2
:1023700011F8104001EB40056C7001F81020441C6E
:10238000E0B20428F1DB7EBD70B505460E462C4652
:102390000DB9002070BD41F2301020808220A07065
:1023A0000420E07020460BF086F90120F2E720219E
:1023B000002000BF08E001EB012293B21A4A083264
:1023C00022F81030421CD0B20428F4DB704770B5FC
:1023D00005460E462C460DB9002070BD4FF48A50BC
:1023E00020808220A0700420E07020460BF063F96A
:1023F0000120F2E710B5044612220B4920460DF0E9
:10240000CCF910BD7CB5002400250020009001907F
:1024100000BF1BE0CA090020F0090020C809002005
:10242000667D0020747D0020947D0020FA4830F8FD
:102430001400FF21B1EB102F04D0F74810F814005E
:10244000FF2801D1012503E0601CC4B2042CEDDBA0
:1024500000BF2022082168460DF016FA042C06D190
:1024600008226946EC480DF06CF900B101252846B8
:102470007CBD02460B4611460AB9002070474FF456
:102480008A500880832088700420C8700120F5E7F6
:10249000E14908390882704770B505460E462C465A
:1024A0000DB9002070BD41F2501020808220A07034
:1024B0000120E07020460BF0FEF80120F2E710B595
:1024C000D648C088D649C880D4480189D4480181FB
:1024D000D2484089D2494881D04880898881CF48F4
:1024E00000880880CD4840884880CC488088888013
:1024F0000E22CC480DF051F910BD10B50E22C8497E
:10250000C8480DF04AF910BD10B504460E22C44962
:1025100020460DF042F910BD10B50E22C049C14849
:102520000DF00FF908B1012010BD0020FCE770B5D7
:1025300005460E462C460DB9002070BD4FF48B5059
:1025400020808220A0700C20E07020460BF0B3F8B1
:102550000120F2E702460B4611460AB900207047F7
:102560004FF48B500880832088700C20C8700120A5
:10257000F5E70020AA49C88148837047A9494883E4
:102580007047012802D002280ED106E00121A44A9A
:1025900091830022A249CA8307E00021A04A9183C7
:1025A00001229F49CA8300E000BF00BF704710B5F9
:1025B00000249B48408B012803D09948408B022877
:1025C00014D19748408B9749488300F0D9FE95492C
:1025D000498B88420AD09349488B00F0D4FE00F022
:1025E000D5FE9049488BFFF7CCFF0124204610BD53
:1025F0008C49C8817047012802D002280ED106E01C
:102600000121874A1182002285494A8207E0002180
:10261000834A1182012282494A8200E000BF00BF42
:10262000704710B500247E48C089012803D07C483B
:10263000C089022817D17A48C0897A49C88100F038
:1026400043FE7849C98988420DD001207449C88168
:102650007449C88900F03BFE00F03CFE7149C8890E
:10266000FFF7C9FF0124204610BD70B505460E4690
:102670002C460DB9002070BD41F2701020808220E0
:10268000A0700220E07020460BF015F80120F2E760
:1026900002460B4611460AB90020704741F27010FD
:1026A0000880832088700220C8700120F5E770B58B
:1026B00005460E462C460DB9002070BD4FF48C50D7
:1026C00020808220A0700420E07020460AF0F3FFF2
:1026D0000120F2E710B504460E2221465048203072
:1026E0000DF05BF810BD10B504460E224C492031A8
:1026F00020460DF052F810BD1FB5002400200090B8
:10270000019002900390684600F096FE0E22694602
:10271000434820300DF015F800B10124204604B0E4
:1027200010BDF8B500240026FF2000903C4D203558
:1027300000BF0CE001226946284603F0A8FA08B160
:10274000012606E06D1CFF200090601CC4B20E2C18
:10275000F0D300BF3046F8BD314988827047304819
:10276000808A704710B5002400F0D1FE2C49898A78
:10277000884200D00124204610BD02460B46114677
:102780000AB90020704741F29010088083208870B9
:102790000820C8700120F5E770B505460E462C46A6
:1027A0000DB9002070BD41F2901020808220A070F1
:1027B0000820E07020460AF07EFF0120F2E71A4967
:1027C0000A6802604A68426009890181704701B560
:1027D00004221549684603F0E9FA42F22000124942
:1027E000088112480A6802604A68426009890181CA
:1027F00008BD10B500240A220B490C480CF0A1FFBB
:1028000040B10A4808490A6802604A68426009897A
:1028100001810124204610BD9C7D0020667D0020A2
:10282000A67D0020D47D00208E7E0020987E002092
:102830000020002100BF0FE0F84A32F81120FF23EA
:10284000B3EB122F04D0F54A12F81120FF2A01D160
:10285000002015E04A1CD1B20429EDDBEF4AD288F2
:10286000FF23B3EB122F0AD0EC4A9279FF2A06D04D
:10287000EA4A12894FF6FF739A4200D1012000BF45
:102880007047E749C8827047E548C08A704710B56D
:10289000002400F098FEE249C98A884200D0012451
:1028A000204610BD02460B4611460AB9002070476B
:1028B0004FF48D500880832088700720C870012055
:1028C000F5E770B505460E462C460DB9002070BDE3
:1028D0004FF48D5020808220A0700720E0702046A9
:1028E0000AF0E9FE0120F2E710B54C21CD480CF0CA
:1028F000D3FF10BDF0B587B005460E46002400207A
:1029000006901422C84901A80CF08CFF00274C2126
:10291000C4480CF0C1FFC34A0021304603F0EEF971
:1029200000BF28E0A81C005D0011069006A803F077
:10293000DBF99DF8180030304FF6FF7101EA0021F5
:10294000B848083020F81410A81C005D00F00F00F3
:10295000069006A803F0C8F9B248083030F8141001
:102960009DF818003030084481B2AE48083020F895
:102970001410601CC4B2042CD4D343F23020A949F3
:102980000882A8890A2190FBF1F201FB1200303085
:10299000A9890A2291FBF2F1303100EB012081B2CA
:1029A000A0484182A87B0A2190FBF1F0303000F56D
:1029B0003C5081B29B488182A87B0A2190FBF1F2B6
:1029C00001FB120030302F2101EB002081B295482D
:1029D000C182E87B0A2190FBF1F201FB120030304A
:1029E000E97B0A2291FBF2F1303100EB012081B248
:1029F0008C480183287C0A2190FBF1F0303000F5EF
:102A0000005081B287484183287C0A2190FBF1F273
:102A100001FB120030303A2101EB002081B28148E5
:102A20008183687C0A2190FBF1F201FB12003030B7
:102A3000697C0A2291FBF2F1303100EB012081B276
:102A40007848C18343F2302076490884A88A0A2155
:102A500090FBF1F201FB12003030A98A0A2291FBAF
:102A6000F2F1303100EB012081B26E484184A87B45
:102A70000A2190FBF1F0303000F53C5081B26948FA
:102A80008184A87D0A2190FBF1F201FB1200303015
:102A90002F2101EB002081B26248C184E87D0A2128
:102AA00090FBF1F201FB12003030E97D0A2291FB2C
:102AB000F2F1303100EB012081B25A480185287EC5
:102AC0000A2190FBF1F0303000F5005081B25548FA
:102AD0004185287E0A2190FBF1F201FB1200303083
:102AE0003A2101EB002081B24E488185687E0A219F
:102AF00090FBF1F201FB12003030697E0A2291FB5B
:102B0000F2F1303100EB012081B24648C185A87A4C
:102B1000401CC7B2434A30320021384603F0EEF879
:102B2000A88B012802D002283AD11BE0002416E02D
:102B30003E4911F8140001023A48323020F81410CE
:102B400030F814003949022202FB04114978084484
:102B500081B23448323020F81410601CC4B2032C07
:102B6000E6D31EE0002418E03048801D10F8140061
:102B700001022C48323020F8141030F814102B4881
:102B8000801D022202FB04004078084481B22548DF
:102B9000323020F81410601CC4B2032CE4D300E0DF
:102BA00000BF00BF68780C285FD2DFE800F05E0647
:102BB0000C131A21282F4349505714221C4901A8ED
:102BC0000CF030FE51E014221949143101A80CF028
:102BD00029FE4AE014221649283101A80CF022FEF1
:102BE00043E0142212493C3101A80CF01BFE3CE0EA
:102BF00014220F49503101A80CF014FE35E01422C4
:102C00000B49643101A80CF00DFE2EE01422084996
:102C1000783101A80CF006FE27E000008E7E00202F
:102C2000A67D0020027E002030FD0008640D0020FB
:102C3000700D00201422FC4901A80CF0F3FD14E0F3
:102C40001422F949143101A80CF0ECFD0DE0142216
:102C5000F549283101A80CF0E5FD06E01422F249FF
:102C60003C3101A80CF0DEFD00BF00BF002414E0E1
:102C700001A911F814000102EC4820F8141030F8F2
:102C8000140001A9022202FB04114978084481B210
:102C9000E64820F81410601CC4B20A2CE8D307B030
:102CA000F0BD30B500230022E0493839262300BFAB
:102CB00009E00C88241200F8014B11F8024B00F8CF
:102CC000014B541CE2B29A42F3DB30BD70B50546AD
:102CD0000E462C460DB9002070BD4FF4804000EB2D
:102CE000062020808220A0702620E070201DFFF7A3
:102CF000D8FF0120F0E72DE9F04107460C461546C4
:102D00001E461821CA480CF0C7FDC94A00213846A2
:102D100002F0F4FFC64A08320021204602F0EEFF1E
:102D2000C3488582C682BDE8F081C14A928A02808A
:102D3000BF4AD28A0A80704730B500230022BC49BE
:102D40000C2300BF09E00C88241200F8014B11F895
:102D5000024B00F8014B541CE2B29A42F3DB30BD47
:102D600070B505460E462C460DB9002070BD41F2E7
:102D7000B01020808220A0700C20E070201DFFF792
:102D8000DBFF0120F2E702460B4611460AB900209C
:102D9000704741F2B0100880832088700C20C87002
:102DA0000120F5E70020A34908807047A14800886A
:102DB000704770B505460E462C460DB9002070BD13
:102DC0004FF48E5020808220A0700120E0702046B9
:102DD0000AF071FC0120F2E702460B4611460AB9DF
:102DE000002070474FF48E500880832088700120A7
:102DF000C87000BFF5E700208F49088370478E48F0
:102E0000008B704770B505460E462C460DB9002064
:102E100070BD41F2D01020808220A0700120E070AF
:102E200020460AF048FC0120F2E702460B46114614
:102E30000AB90020704741F2D010088083208870C2
:102E40000120C87000BFF5E77C4800210160012027
:102E50007A4908807047794909680160704770B500
:102E600005460E462C460DB9002070BD4FF48F501C
:102E700020808220A0700220E07020460AF01BFC17
:102E80000120F2E702460B4611460AB900207047BE
:102E90004FF48F500880832088700220C870012072
:102EA000F5E701B56648BDF80010018008BD70B5B2
:102EB00005460E462C460DB9002070BD41F2F010BB
:102EC00020808220A0700120E07020460AF0F3FBF1
:102ED0000120F2E710B520230021024600BF05E0E3
:102EE00003EB03241480921C4C1CE1B20829F7DB8D
:102EF00010BD0FB410B5142202A952480CF04DFCBD
:102F000010BC5DF814FB70B50C46002300224D493F
:102F10000A2300BF09E00D882D1200F8015B11F8AB
:102F2000025B00F8015B551CEAB29A42F3DB70BD0C
:102F300070B505460E462C460DB9002070BD4FF405
:102F4000A15020808220A0700A20E0703146201D10
:102F5000FFF7D9FF0120F1E710B5002400BF18E00A
:102F6000394830F8140090B1374800884FF6FF71A7
:102F700088420CD0344830F8140042F220018842D4
:102F800005D02A2208212F480CF07EFC03E0601CAB
:102F9000C4B2042CE4DB00BF00241BE02A48083044
:102FA00030F81400A0B1284800894FF6FF7188421C
:102FB0000ED02548083030F8140042F22001884233
:102FC00006D02A2208211F4808300CF05DFC03E0DF
:102FD000601CC4B2042CE1DB00BF10BD0FB410B5FF
:102FE000142202A918480CF0D8FB10BC5DF814FBA1
:102FF00010B504461422144920460CF0CEFB10BD37
:1030000070B505460E462C460DB9002070BD4FF434
:10301000A25020808220A0700A20E07020460AF092
:103020004AFB0120F2E70000FC0D00203A7E002060
:103030004E7E0020CE090020A67D0020D009002071
:10304000D40900207A7E0020667E002002460B46CE
:1030500011460AB9002070474FF4A250088083201F
:1030600088700A20C8700120F5E708B58B480088F1
:103070000090BDF80010084608BD01B58748BDF8AE
:103080000010018008BD0FB410B51A2202A98448AF
:103090000CF083FB1A22824982480CF07EFB10BCA4
:1030A0005DF814FB10B504461A227D4920460CF049
:1030B00074FB10BD10B500240A227A4978480CF040
:1030C00040FB58B1774876490A6802604A68426016
:1030D000098901810120714908700124204610BD31
:1030E0000020002100BF0FE06D4A32F81120FF23BD
:1030F000B3EB122F04D06A4A12F81120FF2A01D133
:10310000002015E04A1CD1B20429EDDB644AD288C4
:10311000FF23B3EB122F0AD0614A9279FF2A06D01F
:103120005F4A12894FF6FF739A4200D1012000BF17
:10313000704710B500240A225A490A3158480A300B
:103140000CF0FFFA68B157480A3055490A310A684D
:1031500002604A6842600989018101204F49487034
:103160000124204610BD0020002100BF11E04C4A80
:103170000A3232F81120FF23B3EB122F05D0484A50
:103180000A3212F81120FF2A01D1002015E04A1C52
:10319000D1B20429EBDB424A128AFF23B3EB122F90
:1031A0000AD03F4A127CFF2A06D03D4A528A4FF687
:1031B000FF739A4200D1012000BF704770B50546E9
:1031C0000E462C460DB9002070BD4FF4A350208050
:1031D0008220A0700D20E07020460AF06CFA0120D9
:1031E000F2E702460B4611460AB9002070474FF439
:1031F000A3500880832088700D20C8700120F5E757
:1032000001B52948BDF80010018008BD08B5264861
:1032100000880090BDF80010084608BD70B505464E
:103220000E462C460DB9002070BD4FF4A4502080EE
:103230008220A0700120E07020460AF03CFA0120B4
:10324000F2E702460B4611460AB9002070474FF4D8
:10325000A4500880832088700120C87000BFF5E763
:1032600008B512480068009008BD01B50F480099E4
:10327000016008BD70B505460E462C460DB900200C
:1032800070BD4FF4A55020808220A0700220E07015
:1032900020460AF010FA0120F2E70000D6090020CB
:1032A000A27E0020BC7E0020D8090020DA09002080
:1032B000F748F8490860F84848607047F54A06CA78
:1032C000C0E9001270477047F44800887047F3491E
:1032D0000880704708B5F1480088ADF80000022169
:1032E000684602F061FC8DF8020003226946132053
:1032F00003F0BBF80322694640F2134009F066FA76
:1033000008BD1CB5032201A9132003F0B9F803225C
:10331000694640F2134009F06EFA022101A802F05A
:1033200043FC9DF8061088420ED19DF804009DF8DC
:10333000051000EB0120D9490880032201A940F2C1
:10334000134009F043FA1AE00221684602F02CFC0F
:103350009DF8021088420DD19DF800009DF80110E3
:1033600000EB0120CD49088003226946132003F0B9
:103370007CF804E00120C9490880FFF7ABFF1CBDC1
:10338000C648C0887047C549C880704708B5C3485B
:10339000C088ADF800000221684602F005FC8DF8F7
:1033A0000200032269461C2003F05FF803226946ED
:1033B00040F21C4009F00AFA08BD1CB5032201A91D
:1033C0001C2003F05DF80322694640F21C4009F01E
:1033D00012FA022101A802F0E7FB9DF806108842CC
:1033E0000ED19DF804009DF8051000EB0120AB49BB
:1033F000C880032201A940F21C4009F0E7F91AE055
:103400000221684602F0D0FB9DF8021088420DD1DF
:103410009DF800009DF8011000EB01209F49C88035
:10342000032269461C2003F020F804E002209B4997
:10343000C880FFF7ABFF1CBD10B504460E229749AC
:10344000083120460CF0A9F910BD10B504460E2233
:103450002146924808300CF0A0F910BD1FB50E228D
:103460008E49083168460CF098F90E21684602F042
:103470009BFB8DF80E000F2269461F2002F0F5FF1E
:103480000F22694640F21F4009F0A0F91FBD00B5A8
:1034900089B00F2205A91F2002F0F2FF0F2201A917
:1034A00040F21F4009F0A7F90E2105A802F07CFBAD
:1034B0009DF8221088420CD10E2205A977480830C9
:1034C0000CF06BF90F2205A940F21F4009F07EF9BC
:1034D0001BE00E2101A802F067FB9DF81210884244
:1034E0000BD10E2201A96D4808300CF056F90F22BD
:1034F00001A91F2002F0B9FF07E020220E21674832
:1035000008300CF0C1F9FFF7A9FF09B000BD63480E
:103510004088704761494880704708B55F484088D7
:10352000ADF800000221684602F03EFB8DF8020073
:1035300003226946162002F098FF0322694640F2F2
:10354000164009F043F908BD1CB5032201A9162055
:1035500002F096FF0322694640F2164009F04BF94B
:10356000022101A802F020FB9DF8061088420ED12E
:103570009DF804009DF8051000EB012047494880A4
:10358000032201A940F2164009F020F91AE00221B5
:10359000684602F009FB9DF8021088420DD19DF8A3
:1035A00000009DF8011000EB01203C4948800322F7
:1035B0006946162002F059FF04E06420374948802C
:1035C000FFF7ABFF1CBD35488088704733498880C2
:1035D000704708B531488088ADF800000221684680
:1035E00002F0E2FA8DF8020003226946192002F087
:1035F0003CFF0322694640F2194009F0E7F808BD94
:103600001CB5032201A9192002F03AFF03226946E2
:1036100040F2194009F0EFF8022101A802F0C4FAC3
:103620009DF8061088420ED19DF804009DF8051003
:1036300000EB012019498880032201A940F21940BA
:1036400009F0C4F81AE00221684602F0ADFA9DF8CC
:10365000021088420DD19DF800009DF8011000EB8A
:1036600001200E49888003226946192002F0FDFEE0
:1036700004E0962009498880FFF7ABFF1CBD10B518
:1036800004461022064920460CF087F810BD0000C1
:1036900066665A42500E002000002041D67E00206F
:1036A000EC7E00201FB5102269468C480CF075F89E
:1036B0001FBD00B585B01022884968460CF06DF832
:1036C0001021684602F070FA8DF810001122694648
:1036D0002E2002F0CAFE1122694640F22E4009F067
:1036E00075F805B000BD00B58FB07D4803C8CDE9C1
:1036F00003017B49083103C9CDE9010111220AA95F
:103700002E2002F0BDFE112205A940F22E4009F044
:1037100072F810210AA802F047FA9DF83810884282
:103720000FD16E480A9901600B9941600C99816034
:103730000D99C16011220AA940F22E4009F046F805
:1037400021E0102105A802F02FFA9DF824108842EC
:103750000ED1624805990160069941600799816020
:103760000899C160112205A92E2002F07EFE0AE010
:103770005A48039901600499416001998160029956
:10378000C160FFF796FF0FB000BD08B5554800684F
:10379000009008BD01B553480099016008BD1CB5F3
:1037A0005048006800900421684602F0FDF98DF849
:1037B0000400052269463F2002F057FE05226946B3
:1037C00040F23F4009F002F81CBD00B585B046A0AC
:1037D00000680090052203A93F2002F051FE052257
:1037E00001A940F23F4009F006F8042103A802F0C5
:1037F000DBF99DF81010884209D13A48039901601D
:10380000052203A940F23F4008F0E0FF15E0042143
:1038100001A802F0C9F99DF80810884208D1314882
:1038200001990160052201A93F2002F01EFE04E07B
:103830002C4800990160FFF7B2FF0021294801F0F0
:1038400027F905B000BD10B586B0002002900390A6
:1038500004900590FEF733FEFEF78BFEFFF734FD74
:103860000446FEF7C5FEFFF78BFD0446FEF786FE15
:10387000FFF72AFD0446FEF7BEFEFFF781FD044672
:10388000FEF77FFEFFF743FE0446FEF765FF02A842
:10389000FFF7D2FD02A8FEF71DFFFFF794FE0446D6
:1038A000FEF7EFFFFFF771FF0190FEF790FF06B004
:1038B00010BD10B5FFF7FCFCFFF723FDFFF77DFD02
:1038C000FFF742FEFFF7E3FDFFF79AFE01F0F1FB81
:1038D000FFF709FFFFF779FF10BD0000EC7E002025
:1038E00044FD00084C0E0020FFFFFFFFFE4870471C
:1038F000FE487047FE48704710B50B21FC480BF09E
:10390000EDFF01F015F8FB49086010BDFA480021F1
:1039100001604160816070470021002000BF06E027
:10392000F24A525C0AB9421CD0B24A1CD1B20C29EC
:10393000F6DB70470021002000BF07E0EB4A525C35
:10394000022A01D1421CD0B24A1CD1B20C29F5DBAB
:1039500070470021002000BF0BE0E44A525C012ABE
:1039600003D0E24A525C022A01D1421CD0B24A1C66
:10397000D1B20C29F1DB704770B50024FFF723FEAC
:103980000646FFF7D7FF054600BF0DE0D748005DAC
:10399000012807D1D748006850F82400B04201DB65
:1039A000681CC5B2601CC4B20C2CEFDB284670BD8D
:1039B0003EB504460025D14A07CA8DE80700CE4827
:1039C000407A042866D1CE4850F8240030B101284E
:1039D00012D0022837D003285BD14AE0C94901EB55
:1039E0008400002102F0FBF8C54850F82400401C78
:1039F000C34941F824004CE0C24901EB84004FF474
:103A0000FA6102F0ECF8C0B9BF4901EB8400002173
:103A100002F0E5F82146002001F012FF032001909A
:103A200002946946022009F02DFFB54850F82400A1
:103A3000401CB34941F8240004E00020B04941F89B
:103A40002400012525E0B04901EB8400642102F047
:103A5000C6F801280CD1AC4901EB8400002102F02A
:103A6000BEF8A74850F82400401CA54941F824009E
:103A70000FE0204601F0DCFE012805D10020A0491E
:103A800041F82400012503E001209D4941F824006C
:103A900000BF00E0012528463EBD3EB50446974ADA
:103AA0000C3207CA8DE80700984901EB8400C82151
:103AB00002F095F801280AD1944901EB8400002115
:103AC00002F08DF802946946022009F0DBFE3EBD4B
:103AD0003EB504460025894A183207CA8DE807001A
:103AE0008B4850F8240030B1012812D0022837D07A
:103AF00003285BD14AE0874901EB8400002102F0F2
:103B00006EF8834850F82400401C814941F8240095
:103B10004CE0804901EB84004FF4FA6102F05FF859
:103B2000C0B97D4901EB8400002102F058F821461C
:103B3000012001F085FE03200190029469460220D5
:103B400009F0A0FE724850F82400401C704941F86A
:103B5000240004E000206E4941F82400012525E0FE
:103B60006D4901EB8400642102F039F801280CD181
:103B7000694901EB8400002102F031F8644850F8F3
:103B80002400401C624941F824000FE0204601F067
:103B90004FFE012805D100205D4941F82400012590
:103BA00003E001205A4941F8240000BF00BF284625
:103BB0003EBD3EB50024514A243207CA8DE80700B5
:103BC00000BF66E0554800680121A1400840002878
:103BD0005AD05348005D10B1012854D11FE021464E
:103BE000002001F02DFE02946946022009F04AFEF1
:103BF0004C48006820F4803000F580304949086066
:103C0000204609F0DCFA484901EB8400002101F06C
:103C1000E6FF4348005D401C4149085533E04249F6
:103C200001EB8400C82101F0DAFF58B3204609F007
:103C300026FB204609F083FB38B138480168012093
:103C4000A0408143354801601CE0384901EB840005
:103C500040F2F91101F0C3FFA0B13548015D005DEC
:103C6000401C334A1055032909DB00201146085532
:103C70002A4801680120A0408143284801600020B3
:103C80002749085500BF02E0002025490855601C5F
:103C9000C4B20C2C96DB2148006810B925481F4996
:103CA00048603EBD1D48006818B1AFF2F9001B49DD
:103CB0004860704770B5044600251F48005D09281C
:103CC00073D2DFE800F0054CC9FAF9F8F7F6F50011
:103CD0002046FFF76DFE012840D1204609F06FFA1B
:103CE000164901EB84002BE0FC8E0020988F002009
:103CF00010900020580E00208C8F002054FD0008EA
:103D00001C9000204C9000207C900020AC90002063
:103D1000DC9000200C9100203C9100205C0E0020E3
:103D20006C9100206C09002078910020A89100205F
:103D3000D8910020A53C0008E4910020F0910020DB
:103D4000002101F04CFFF74901EB8400002101F054
:103D500046FFF548005D401CF349085520E2F34951
:103D600001EB8400C82101F03AFF002873D02046FF
:103D700009F085FA204609F0E2FA40B3EC48407AAF
:103D8000012813D1E848005D401CE7490855E9497E
:103D900001EB8400002101F022FFE748006820F0D9
:103DA0000100401CE449086055E0F8E10520DE49C7
:103DB0000855E24901EB8400002101F010FFDE48C4
:103DC000006820F00200801CDB49086043E0D54910
:103DD00001EB840040F2F91101F001FF00283AD014
:103DE000D748015D005D401CD54A105503292FDBE3
:103DF000002011460855FF20D2490855CC48407A8A
:103E000001280BD101250F20FEF7ADF8CA48006844
:103E100020F080008030C84908600BE002251020A7
:103E2000FEF7A1F8C448006820F4806000F58060C7
:103E3000C1490860BE49CB7A887A4A1C294601F0FC
:103E4000A3F9FFF763FDC0480078401EBE49087023
:103E50000020B5490855A3E1B64901EB84004EF6B0
:103E6000602101F0BCFE48BB2046FFF716FEB548B6
:103E7000005D50B1B54901EB8400002101F0AFFEB7
:103E8000A948005D401CA8490855204609F057FA8A
:103E900058BBAC48005D40BBAC4901EB840000213D
:103EA00001F09DFEA048005D401C9F4908551CE0A4
:103EB0006AE15BE112E1EDE06BE017E0FFE7FE2075
:103EC000A049085502209A4948729F480078401E30
:103ED0009D4908700020944908559748006820F4CF
:103EE000804000F580409449086059E1974901EB12
:103EF000840045F2F05101F072FE98BB2046FFF7B6
:103F0000CCFD204609F01BFA58BB904901EB840018
:103F1000002101F064FE8E4901EB8400002101F0D4
:103F20005EFE8848005D06280AD12046FFF7D0FDD6
:103F300001280AD17C48005D401C7B49085504E0FB
:103F40007948005D401C784908557B48006820F49A
:103F5000004000F500407849086000217D4801F0EC
:103F60003EFE15E0FFE7FE20764908550220704925
:103F7000487275480078401E7349087000206A49ED
:103F800008556D48006820F0200020306A4908601C
:103F900006E16F4901EB840041F2883101F01FFE18
:103FA000002860D06748005D012803D06548005DA7
:103FB00002280DD103255E49CB7A887A4A1C29460E
:103FC00001F0E2F803205A4948720020C87246E026
:103FD0005C48005D90B904255549CB7A887A4A1C23
:103FE000294601F0D1F81720FDF7BDFF52480068BF
:103FF00020F0400040305049086022E05148005D08
:1040000003280BD04F48005D042807D04D48005DC1
:10401000052803D04B48005D072812D105254449E7
:10402000CB7A887A4A1C294601F0AEF81B20FDF7AE
:104030009AFF4148006820F4805000F580503E49C6
:104040000860FFF763FC40480078401E3E49087056
:10405000414800680121A14008433F490860002011
:104060003149085515E02046FFF717FD4FF4486128
:10407000384801F0B4FD01280BD10021354801F08A
:10408000AEFD2D48006820F4004000F500402A49AC
:10409000086085E0294901EB840049F6404101F0C0
:1040A0009EFDA8B9204609F04AF9B0B9234901EBB1
:1040B0008400002101F093FD254901EB84000021DB
:1040C00001F08DFD1848005D401C1749085504E0BB
:1040D0001548005D801C1449085561E01C4901EB3E
:1040E000840040F6B83101F07AFDB8B31548005DA0
:1040F000A8B308250E49CB7A887A4A1C294601F0D4
:1041000043F81D20FDF72FFF0748005D801C06497E
:1041100008550948006820F4005000F50050064991
:10412000086022E020920020E4910020F09100201D
:104130008C8F00205C9200206C090020EC92002003
:1041400050920020988F0020109000208C92002028
:10415000BC920020640E00205C0E002005E0FFE70A
:10416000F948005D401CF849085519E00925F74950
:10417000CB7A887A4A1C294601F006F8F248005D9D
:10418000401CF14908550BE0FFF7C0FBF0480078F0
:10419000401EEF4908700020EB49085500E000BFC1
:1041A00000BF70BD70B504460025EA48005D10B13F
:1041B00001286AD110E0204609F0C1F858B9FD2065
:1041C000E5490855E348005D401CE24908550021D7
:1041D000E24801F004FD59E04FF47A71DF4801F044
:1041E000FEFC01284DD10021DC4801F0F8FCDA4842
:1041F000005DFD2848D0D848005D012803D0D6488E
:10420000005D02280AD10625D049CB7A887A4A1C5B
:10421000294600F0B9FF1C20FDF7A5FECE48005D41
:1042200003280BD0CC48005D042807D0CA48005DA5
:10423000052803D0C848005D072812D10725C349C7
:10424000CB7A887A4A1C294600F09EFF1E20FDF793
:104250008AFEC348006820F4805000F58050C049B1
:104260000860FFF753FB0020BA490855BA48005DC3
:1042700050B1BC4800680121A1400843B949086019
:1042800002E02046FFF709FC00E000BF00BF70BD60
:1042900070B50025002400BF0CE004EB4400B249D7
:1042A00001EB8000407A012802D10125284670BD2B
:1042B000601CC4B20C2CF0DBFFF72EFB012808DBDE
:1042C000FFF75AFBA2490978491C884201DB032504
:1042D00000E002252846EAE70021002000BF0AE0AE
:1042E00001EB4102A04B03EB8202527A0AB9084665
:1042F00003E04A1CD1B20C29F2DB00BF704770B555
:104300000126B51E0024FFF707FB28B1FFF734FB99
:104310008F490978884202DA0026304670BD9348FA
:104320000078401CC4B206E08B48005D08B965B255
:1043300003E0601CC4B20C2CF6DB00BF681C78B92B
:10434000002406E08448005D08B965B207E0601CFF
:10435000C4B2864890F90000401C8442F2DB00BFE2
:1043600001207A494872CD72804805703046D5E701
:1043700010B502460021012000BF1AE001EB410305
:10438000794C04EB83035B7A042B06D001EB4103E9
:1043900004EB83035B7A022B09D101EB4103724CDE
:1043A00004EB8303DB7A934201D1002003E04B1C32
:1043B000D9B20C29E2DB00BF10BD2DE9F041FFF7B7
:1043C00002F906464FF0FF350024FFF7D5FA88B909
:1043D0005E49887A00234A1C0B2100F0D5FEFFF7C6
:1043E00095FA5B480078401E594908701420FDF783
:1043F000BAFD76E0FFF79EFA01282BDB5C480078D7
:10440000401CC4B20BE05448005D022805D1204690
:10441000FFF7AEFF08B165B203E0601CC4B20C2C1C
:10442000F1DB00BF681C00284BD100240BE04A4898
:10443000005D022805D12046FFF79AFF08B165B25A
:1044400007E0601CC4B24A4890F90000401C844256
:10445000EDDB36E046480078401CC4B211E03E482F
:10446000005D01280BD14348006850F82400B04299
:1044700005DB2046FFF77CFF08B165B203E0601C56
:10448000C4B20C2CEBDB00BF681CD0B9002411E0D7
:104490003148005D01280BD13648006850F82400EF
:1044A000B04205DB2046FFF763FF08B165B207E0C5
:1044B000601CC4B22E4890F90000401C8442E7DB27
:1044C00000BF042021494872CD72FEF7FDFE074669
:1044D0001E49887A3A460C2100F03DFE24480570BA
:1044E00000BFBDE8F08110B50446012C06D0022CB7
:1044F0000AD0032C0DD0042C0ED100E000BF1349CC
:10450000C87AFFF7D7FB1CE01049C87AFFF74AFECC
:1045100017E0FFF752FF14E0FFF7F1FE80B90B49F7
:10452000887A00234A1C0A2100F02EFEFFF7EEF9DC
:1045300007480078401E064908701420FDF713FD57
:1045400000BF00BF10BD0000E49100208C8F002050
:10455000109000201C930020988F002028930020AA
:104560006C0900205C0E0020FC8E0020680E0020EC
:10457000690E0020580E0020E048807A7047DF481E
:10458000407A704710B5002008F04EFF30B1DC488B
:104590000078401C40B2DA49087005E0D84800783D
:1045A000401E40B2D6490870D54890F90000052851
:1045B0000CDB0520D2490870002008F083FF0020A2
:1045C00008F092FF0120CD4908728872CC4890F91A
:1045D000000010F1050F05DCFB20C9490870002020
:1045E000C6498872012008F01FFF50B1FEF7C8FECF
:1045F000012806D1C3480078401C40B2C149087068
:1046000005E0C0480078401E40B2BE490870BD4871
:1046100090F9000005280BDB0520BA49087000203E
:1046200008F050FF002008F05FFF0120B3494872F6
:10463000B44890F9000010F1050F05DCFB20B149EA
:1046400008700020AD494872AD4890F9000010F1A3
:10465000050F0EDCAB4890F9000010F1050F08DCE7
:10466000002008F038FF002008F043FF0020A34995
:10467000087210BD10B5022008F0D6FE30B1A24875
:104680000078401C40B2A049087005E09E480078C0
:10469000401E40B29C4908709B4890F900000528D4
:1046A00005DB0520984908700120944988809648C8
:1046B00090F9000010F1050F05DCFB20924908700D
:1046C00000208E49888010BD8C48808870478B48B8
:1046D000C088704770B50024FBF729FE054600BF6F
:1046E00008E00120A040284010B1FC20874908556F
:1046F000601CC4B20C2CF4DB70BD3EB50024002558
:10470000834A07CA8DE807007C484078012834D1E5
:104710002EE002F0C3FA25B1012D0CD0022D26D1D6
:1047200021E000217B4801F05AFA204608F047FDBD
:10473000681CC5B21BE0C821764801F050FA88B168
:104740000021744801F04BFA204608F098FD2146FC
:10475000002001F075F802946946022009F092F8F1
:10476000681CC5B203E0601CC4B2002500BF00BFD6
:104770000C2CCEDB0020614948703EBD0EB5644A6A
:104780000C3207CA8DE807005C48807800283FD0CB
:104790006148007820B1012810D0022837D12CE0E0
:1047A0005649C87808F00BFD00215C4801F017FA63
:1047B00059480078401C5849087028E0C8215748DB
:1047C00001F00DFAC0B10021544801F008FA4B493C
:1047D000C87808F054FD4948C178002001F030F84D
:1047E0004648C07802906946022009F04BF84A48D2
:1047F0000078401C4849087009E000203F49887053
:1048000000213E48C17000204349087000BF00BF2E
:104810000EBD3EB53E4A183207CA8DE80700002497
:1048200036480078002839D14FF47A713C4801F0BD
:10483000D6F9012832D10021394801F0D0F93948A0
:10484000007808F07CFD90B9304836490978405C22
:1048500006280BD02D4833490978405C012805D043
:104860002A4830490978405C022800D101242D48AB
:104870000178204600F0E4FF2A480078029069465B
:10488000022008F0FFFF27480078401C25490870E7
:10489000084600780C2801D1002008703EBDAFF614
:1048A000FB3021494860FFF727F84FF47A7001F098
:1048B000AEF900BF1C494868804702F0EFF900F0EC
:1048C00039F800F084F808F0D7F901F0EBFAFFF7B7
:1048D00059FEFFF712FFFFF751FFFFF7CBFEFFF77F
:1048E000F9FE142001F093F9E4E710B504230F4A10
:1048F0000021AFF2550001F0EDFD10BD1090002039
:104900006A0E00206B0E00206C0E0020988F002095
:1049100084FD0008700E0020780E0020740E002028
:104920007C0E0020790E00205C0E0020F88E002006
:10493000544870477FB50024002002900390FEF792
:10494000D7FF05464FF47A714F4801F048F960B33C
:1049500000214D4801F043F900BF24E0285D012803
:1049600002D0285D02281CD102A801F0A9FEDDE9D1
:10497000020101F0E3FE064605F1180000EBC40059
:1049800001680091406801460190009801F0D6FE50
:10499000311A3C48303050F824000844394941F875
:1049A0002400601CC4B20C2CD8DB7FBD10B50446BB
:1049B0009022344920460AF0F0FE10BD10B504469E
:1049C000902221462F4830300AF0E7FE10BD00B596
:1049D000B3B0FEF7BEFF012818DB40F6B8312B4814
:1049E00001F0FDF890B10021284801F0F8F80DF130
:1049F0000600FFF7DBFFA5208DF80400AA208DF844
:104A00000500C82201A9002007F0E0FE33B000BD78
:104A100001E0411E88B20028FBDC704710B5044657
:104A200007E0601E84B241F28830FFF7F1FF02F028
:104A300035F9002CF5DC10BD00B5B3B01920FFF737
:104A4000EDFFC82201A9002007F0D5FE9DF8050062
:104A5000AA2809D11920FFF7E1FF0DF10600FFF7A1
:104A6000ADFF1920FFF7DAFF33B000BD0EB500200F
:104A70008DF800008DF801000222694607F0A6FEBD
:104A80000EBD000058930020800E0020840E0020F0
:104A900001EB4102FB4B03EB82020368136070479A
:104AA00001EB4102F84B03EB4202036813607047CD
:104AB00010B504461822F54920460AF06EFE10BDD6
:104AC00070B59CB005460E462C4614B900201CB0AB
:104AD00070BD02202070608043F23040A0803222FE
:104AE000214601A80AF059FE0120F0E770B59CB0FC
:104AF00004460E462546A879E44908713222294623
:104B000001A80AF04AFE01201CB070BD70B59CB02F
:104B100005460E462C4614B900201CB070BD02207C
:104B200020700920608043F23240A080D74840794D
:104B3000E071D648407902280DDAD448407900EB7C
:104B40004000D04901EB80010A6804F10800A2602E
:104B50008988A18106E0CB49CA6804F10800A260F7
:104B6000098AA1813222214601A80AF016FE0120FD
:104B7000D3E730B502460B46114609B9002030BDD7
:104B8000022008700920488043F239408880BF48DD
:104B90004079C871BD48407902280DDABB48407998
:104BA00000EB4000B74C04EB8004D4F8065001F150
:104BB00008008D6064898C810120E0E770B59CB0AD
:104BC00004460E462546E879B04908713222294646
:104BD00001A80AF0E2FD01201CB070BD30B502460C
:104BE0000B46114609B9002030BD0220087009208B
:104BF000488043F235408880A4484079C871A34872
:104C0000407902280CDAA148407900EB40009E4C24
:104C100004EB4004256801F108008D60A4888C81B4
:104C20000120E1E770B59CB005460E462C4614B94C
:104C300000201CB070BD022020700420608043F270
:104C40003340A08091484079E07190488179217289
:104C50003222214601A80AF0A0FD0120E9E770B543
:104C60009CB005460E462C46207A884908710846B5
:104C7000007959280FD1A079497988420BD1E07980
:104C800082498979884206D1102204F109017F48BE
:104C9000C01D0AF082FD3222214601A80AF07DFDE6
:104CA00001201CB070BD10B502460B46114609B973
:104CB000002010BD022008700820488043F23840D0
:104CC000888072484079C871704884790C720446B3
:104CD000D4F80740C1F809400120EAE710B50246C0
:104CE0000B461146087A592811D18879674C6479A6
:104CF000A04208D1C879654CA479A04203D15920BB
:104D0000624C207106E04E20604C207102E0087A6F
:104D10005E4C2071012010BD5C480079592801D1FA
:104D2000012070470020FCE70020584908717047B7
:104D3000564A50719171704710B5044653484079F6
:104D400004EBC401524A02F811005048807904EB88
:104D5000C40102EB4101487004EBC40102EB4101C4
:104D6000881C10224949C91D0AF017FD10BD10B555
:104D700004464422464920460AF054FD10BD10B5B1
:104D8000442143480AF0AAFD10BD30B587B004465F
:104D9000404A07CA04AB07C30025002002900390D5
:104DA00024B9182139480AF077FDC5E03748007862
:104DB00030B1012831D002286FD003286CD197E0A0
:104DC00002E0052000F023FF0021012008F0BDFDD6
:104DD0000028F6D12D484088402809D12B48007979
:104DE000592805D129480078401C2849087013E04B
:104DF00026484088402805D124480079332801D12D
:104E0000012509E0402005902049488000200871D4
:104E100004A9012008F036FD8DE002E0052000F035
:104E2000F6FE0021012008F090FD0028F6D1174879
:104E3000408880281AD115480079592816D168462B
:104E4000FBF7AAFADDE90001CDE902019DF80800AF
:104E50002D2805D10D480078801C0C4908700FE002
:104E60000A480078401C0949087009E08020059034
:104E7000064948800020087104A9012008F002FDBD
:104E800059E00AE0880E0020A00E0020E8930020E0
:104E900000940020A8FD00084BE002E0052000F08F
:104EA000B6FE0021012008F050FD0028F6D16A4826
:104EB0004088B0F5807F05D167480079592801D135
:104EC000042514E064484088B0F5807F04D162482E
:104ED000007908B102250AE04FF4807005905E4920
:104EE00048800020087104A9012008F0CBFC22E0D2
:104EF00002E0052000F08BFE0021012008F025FDD6
:104F00000028F6D154484088B0F5006F05D15248CA
:104F10000079592801D105250AE04FF40060059079
:104F20004D4948800020087104A9012008F0AAFC1E
:104F300001E0032500BF00BF284607B030BD3EB5E5
:104F40000446464A07CA8DE80700002524B91821FF
:104F500041480AF0A1FC7CE03F48007820B10128DC
:104F600025D0022872D145E002E0052000F04FFE76
:104F70000021012008F0E9FC0028F6D136484088DD
:104F8000402809D134480079592805D132480078A1
:104F9000401C3149087009E0402001902E494880AA
:104FA000002008716946012008F06CFC50E002E026
:104FB000052000F02CFE0021012008F0C6FC00288E
:104FC000F6D125484088802809D1234800795928FE
:104FD00005D121480078401C1F49087009E0802055
:104FE00001901D494880002008716946012008F0A1
:104FF00049FC2DE002E0052000F009FE002101201F
:1050000008F0A3FC0028F6D113484088B0F5007FD3
:1050100005D111480079592801D1042514E00E4822
:105020004088B0F5007F04D10B48007908B1022513
:105030000AE04FF480600190074948800020087121
:105040006946012008F01EFC02E0FFE7032500BFCF
:1050500000BF28463EBD0000E8930020B4FD0008D4
:10506000A048008841F28831884201DD0846704737
:105070009C480088FBE700209A490880704738B5B3
:10508000044620128DF80000E0B28DF801000221E4
:10509000684600F089FD8DF8020003226946102061
:1050A00001F0E3F9032269464FF4826007F08EFBBA
:1050B00038BD1CB5032201A9102001F0E1F903223B
:1050C00069464FF4826007F096FB022101A800F0C8
:1050D0006BFD9DF8061088420ED19DF805009DF8E5
:1050E000041000EB01207F490880032201A94FF43E
:1050F000826007F06BFB2DE00221684600F054FD52
:105100009DF8021088420DD19DF801009DF8001015
:1051100000EB01207349088003226946102001F04A
:10512000A4F917E000206F4908808DF804008DF87D
:105130000500022101A800F037FD8DF806000322CA
:1051400001A9102001F091F9032201A94FF4826016
:1051500007F03CFB1CBD70B504460D461646A52065
:10516000614901EB441108705F4800EB4410457041
:105170005D4901EB441101F10C0001F0A1FA5A481C
:1051800000EB4410868370BD2DE9F04104460D46C6
:1051900016461F46544800EB44104570524800EB39
:1051A00044108772504901EB441101F1140001F0E1
:1051B00087FA4D4800EB4410316840F8021F7168CF
:1051C0004160494A02EB44121E32474B03EB441341
:1051D000D21A91B2444A02EB441000F0E5FC424975
:1051E00001EB4411887702E0032000F010FD3F48F6
:1051F00000780128F8D001203C490870394800881F
:1052000041F2883190FBF1F201FB1200002101EB29
:105210000028354901EB44102022414608F0D5FF13
:105220000020324908702F480088401C2D49088012
:105230000846008842F21071884205DB2948008840
:10524000A0EB61002749088026480088FFF717FF78
:10525000254901EB441020210AF01EFBBDE8F08136
:1052600070B505460C461F480088854233DA41F286
:10527000883085422FDA1B480088401B401E85B2CB
:1052800002E0032000F0C3FC194800780128F8D0A0
:1052900001201749087041F2883095FBF0F100FBBE
:1052A0001150002101EB002620223146204608F053
:1052B00066FF00200E4908702078A5280BD104F164
:1052C0001E00001B81B2204600F06EFCA17F8842C8
:1052D00001D1012070BD202120460AF0DDFA002016
:1052E000F8E70000AE0E002088940020AC0E0020ED
:1052F000AD0E002010B50024FEF7FAFAF749086059
:10530000FFF716FBF649086000BF09E0F449096899
:10531000603101EB8400002100F061FC601CC4B22C
:105320000C2CF3DB10BD10B50446EC480068005DA2
:10533000FF2871D0E9480068005DFE28F9D004EB31
:105340008400E84901EB80008089B0F5AF7F0BDB7A
:105350000620E24909680855012004EB8401E14A6E
:1053600002EB8101487209E00020DC490968085518
:1053700004EB8401DB4A02EB81014872D7480068E4
:10538000005D06284DD104EB8400D64901EB800076
:10539000008AB8B904EB840001EB8000408A012840
:1053A00004D0022803D003280BD105E009E0012036
:1053B000CA490968085504E00220C8490968085527
:1053C00000BF2EE004EB8400C64901EB8000007CA6
:1053D000C0F3401020B10320C0490968085520E0FF
:1053E00004EB8400BF4901EB8000008AC0F3402039
:1053F00020B10420B9490968085512E004EB840083
:10540000B84901EB8000007C00F0010028B10520C4
:10541000B2490968085504E03EE00720AF49096831
:105420000855AE480068005D012804D0AB4800680C
:10543000005D02280DD1AC48005D50B90120AA4999
:105440000855A6490968183101EBC40001F038F984
:1054500022E0A2480068005DF0B90020A24908558A
:105460009E480068183000EBC400002101604160D4
:105470009B48006840F8241099490968603101EBA5
:10548000840041F2883100F0AAFB28B10021944841
:105490000068303040F8241010BD2DE9F84306466E
:1054A0008946154600240020009000BF00BF301937
:1054B00000880090BDF8000000B2002811DDBDF8A2
:1054C000000000F007FC07464FF47A7007FB00F875
:1054D0004FEA183005EB8501824A02EB81014881D1
:1054E00006E0002005EB85017E4A02EB8101488140
:1054F000A01CC4B2301900880090BDF8000000F074
:10550000E9FB0746C7EB07104FEA4018C8F30F3115
:1055100005EB8500734A02EB80008181A01CC4B2B8
:10552000301900880090BDF8000000F0D3FB07465A
:10553000C7EB07104FEA4018C8F30F3105EB8500A1
:10554000684A02EB8000C181A41C201DC4B230193E
:1055500000880090BDF8000000F0BCFB05EB850161
:10556000604A02EB81010882A41CA01DC4B230195C
:1055700000880090BDF8000000F0ACFB05EB850151
:10558000584A02EB8101488200BF2846FFF7CBFE54
:10559000BDE8F8832DE9F843064688461446002501
:1055A000002000900027701900880090BDF80000CE
:1055B00000F090FB0746AD1C04EB8400494931F82C
:1055C0002000B84207D1012004EB8401454A02EBD8
:1055D0008101887106E0002004EB8401414A02EB5E
:1055E00081018871281DC5B2701900880090BDF82E
:1055F000000000F06FFB0746A81CC5B204EB840056
:10560000384901EB80004088B84207D1012004EB03
:105610008401344A02EB8101C87106E0002004EBEA
:105620008401304A02EB8101C871BDE8F8832DE99D
:10563000F8430546884614460026002000900027BF
:10564000A81900880090BDF8000000F043FB074651
:10565000B61C04EB8400234901EB80008088B8422B
:1056600007D1012004EB84011E4A02EB810108727C
:1056700006E0002004EB84011A4A02EB8101087263
:10568000BDE8F88370B505460C461646022C0FD0CF
:10569000082C07D0142C11D1324621462846FFF79A
:1056A000FCFE0BE0324621462846FFF773FF05E07B
:1056B000324621462846FFF7BAFF00BF00BF70BD43
:1056C00010B5CC2807D1012201EB8103054C04EB76
:1056D00083031A7200BF00BF10BD0000B00E00208F
:1056E000B40E002008960020F896002070B50546FC
:1056F0000E462C460CB9002070BD6078042802D0FC
:1057000010280BD105E02278A179E01DFFF7BAFF40
:1057100004E021786088FFF7D3FF00BF00BF0120BD
:10572000EAE702460B4611460AB9002070470B70A3
:10573000042048704FF4C87048800A2088800120F7
:10574000F4E702460B4611460AB9002070470B7079
:1057500004204870C8204880042088800120F5E794
:1057600002460B4611460AB9002070470B70042010
:105770004870CC2048800120888000BFF5E72DE9E3
:10578000F04106460D461446DD4930460AF02AF936
:1057900007460AF007F904EB8401DA4A22F82100EF
:1057A000D94928460AF01EF907460AF0FBF804EB2F
:1057B0008401D44A02EB81014880BDE8F081F8B54C
:1057C00007460E463C4600250020009007B9F8BD6C
:1057D000267010206070C82060800420A0800820FF
:1057E000A07106EB8601C74A32F8210000F072FA78
:1057F0000090E01D2844BDF800100180A81CC5B22F
:10580000E01D284400210160281DC5B206EB860179
:10581000BC4A02EB8101488800F05CFA0090E01D70
:105820002844BDF800100180A81CC5B20120CEE7B5
:10583000014601EB8100B34A02EB8000007A704719
:1058400010B5012807D1012201EB8103AD4C04EB17
:1058500083039A8006E0002201EB8103A94C04EB4C
:1058600083039A80002201EB8103A64C04EB83039F
:105870001A7210BDF8B505460E462C460020009061
:1058800005B9F8BD267010206070CC206080012022
:10589000A0800220A07106EB86019A4A02EB8101EA
:1058A000888800F017FA0090BDF80000A4F80700FF
:1058B0000120E6E710B586B004A8FDF7FFFC934A87
:1058C00007CA01AB07C30C2491480078002879D19E
:1058D00003F0EDFC8F49086000208F4908709FE0BD
:1058E000FAF75FFD00208D49087032E08B480078A0
:1058F00000EB8000834901EB8000807938B1874854
:10590000007800EB800001EB8000C079E0B901F085
:10591000C5F9824A1278DDE90401FFF730FF022061
:1059200002907E480078039001A9022007F0AAFFA8
:1059300004E001F0B3F9022000F069F90021012030
:1059400008F003F80028F4D174480078401C73492B
:10595000087072480078A042C8DB7048007800EBFD
:105960008000684901EB8000807938B16B4800788D
:1059700000EB800001EB8000C07910B93C2000F002
:1059800046F90020654908702DE06448007800EB76
:1059900080005C4901EB8000807938B15F48007875
:1059A00000EB800001EB8000C079B8B901F076F916
:1059B0000420029059480078039001A9022007F0C2
:1059C00061FF05E098E001F069F9022000F01FF99D
:1059D0000021012007F0B9FF0028F4D14F480078DA
:1059E000401C4E4908704D480078A042CDDB4B4822
:1059F000007800EB8000434901EB8000807938B1EA
:105A00004648007800EB800001EB8000C07910B9B7
:105A10003C2000F0FCF840480078401C3E490870EB
:105A20003D4800780328FFF65BAF00203A49087034
:105A300054E0FAF7B6FC00203849087039E03748DE
:105A4000007800EB80002F4901EB8000007A58BB02
:105A500001F024F93148007800EB8000294901EB7E
:105A60008000407A012805D12C4801780120FFF7F9
:105A7000E7FE04E0294801780020FFF7E1FE03205B
:105A8000029026480078039001A9022007F0FAFE50
:105A900004E001F003F9022000F0B9F80021012030
:105AA00007F053FF0028F4D11C480078401C1B4924
:105AB00008701A480078A042C1DB1848007800EB53
:105AC0008000104901EB8000007A10B9502000F0EE
:105AD0009EF811480078401C0F4908700E48007865
