:020000040800F2
:1000000078DA00200D96000815960008179600086B
:10001000199600081B9600081D96000800000000B5
:100020000000000000000000000000001F96000813
:1000300021960008000000003F7C0008577D000862
:10004000279600082796000827960008279600089C
:10005000279600082796000827960008279600088C
:10006000279600082796000827960008279600087C
:10007000279600082796000893F2000843F7000827
:10008000279600086BEE00082796000827960008C0
:10009000279600082796000827960008279600084C
:1000A000279600082796000827960008279600083C
:1000B000279600082796000827960008279600082C
:1000C000279600082796000827960008279600081C
:1000D00027960008F7EA00089FEF0008C9F3000818
:1000E00027960008279600082796000827960008FC
:1000F00027960008279600082796000827960008EC
:1001000027960008279600082796000827960008DB
:1001100077F8000827960008279600082796000819
:1001200027960008279600082796000827960008BB
:1001300027960008279600082796000827960008AB
:10014000279600082796000827960008279600089B
:100150002796000827960008C1E90008279600089E
:10016000279600082796000827960008279600087B
:10017000279600082796000827960008279600086B
:100180002796000800F002F800F05AF80AA090E85C
:10019000000C82448344AAF10107DA4501D100F042
:1001A0004FF8AFF2090EBAE80F0013F0010F18BFB5
:1001B000FB1A43F001031847A0010100C001010030
:1001C0000A444FF0000C10F8013B13F0070408BF7D
:1001D00010F8014B1D1108BF10F8015B641E05D01B
:1001E00010F8016B641E01F8016BF9D113F0080FD0
:1001F0001EBF10F8014BAD1C0C1B09D16D1E58BF62
:1002000001F801CBFAD505E014F8016B01F8016B98
:100210006D1EF9D59142D6D370470000002300240B
:1002200000250026103A28BF78C1FBD8520728BF06
:1002300030C148BF0B6070471FB51FBD10B510BD62
:100240000FF0FEFC1146FFF7F7FF00F01AF80FF071
:100250001CFD03B4FFF7F2FF03BC0FF023FD000009
:1002600010B506F0A0FA06F0A5FA10BD00F063F88C
:1002700001F02FFF04F04BFC02E0322005F04FFEAE
:10028000FBE7002407F0BAFC0446FFF7E9FF04F09F
:10029000E5FC06F0C5FA0A23084A0021AFF2330054
:1002A00006F0A0FA204607F0ADFC06F0B3FA02E033
:1002B0000A2005F034FEFBE770470000042200200E
:1002C00001202B4908700320487027200881294805
:1002D0004860002008832849086070472548C06AA4
:1002E00000687047012022490877012120484177A2
:1002F0000621818421490162002181860020204954
:10030000086070471D48C06A00687047012018499E
:1003100081F838000221164880F839100621A0F82B
:1003200040101849C1630021A0F8501070471548CB
:10033000C06A0068704710B5FFF7C2FFFFF7D2FF31
:10034000FFF7E4FF0723104A09491C310F4808F062
:10035000E5FD08230E4A06490C4808F0DFFD052399
:100360000C4A03493831094808F0D8FD10BD000097
:10037000082200200C000020040000206407002058
:100380005C070020900800209C53002045DE0008F8
:10039000583A0020486C0020F94A06CAC0E9001209
:1003A00070470EB5F74A07CA8DE807004FF4FA61A7
:1003B000F54805F09CFD012809D10021F24805F01F
:1003C00096FD24200290694600200DF0E3FB0EBD4F
:1003D0003EB5EC4A0C3207CA8DE807000024EB4812
:1003E000007811282DD2DFE800F0092D4C6B8AA986
:1003F000C8F1EFEEEDECEBEAE9E8E700E44801686C
:10040000E44805F074FD01281BD1E348007800F0B2
:10041000010088B1E0480078C0F3C00060B9DE4850
:10042000006820F00100DC490860012401200290EE
:100430000021D84805F05BFDD4480078401CD34922
:10044000087006E2D2480168D24805F050FD012844
:1004500016D1D1480078C0F3400060B1CE480068A2
:1004600020F00200CC490860012404200290002101
:10047000C84805F03CFDC5480078401CC3490870D9
:10048000E7E1C3480168C34805F031FD012816D1F2
:10049000C1480078C0F3800060B1BF48006820F018
:1004A0000400BD4908600124062002900021B948DB
:1004B00005F01DFDB5480078401CB4490870C8E13E
:1004C000B3480168B34805F012FD012816D1B248BF
:1004D0000078C0F3C00060B1AF48006820F00800A9
:1004E000AD4908600124082002900021A94805F0C8
:1004F000FEFCA6480078401CA4490870A9E1A44865
:100500000168A44805F0F3FC012816D1A248007840
:10051000C0F3001060B1A048006820F010009E49B0
:10052000086001240A20029000219A4805F0DFFCAF
:1005300096480078401C954908708AE19448016803
:10054000944805F0D4FC012816D193480078C0F3F4
:10055000401060B19048006820F020008E4908608B
:1005600001240C20029000218A4805F0C0FC874835
:100570000078401C854908706BE185480168854812
:1005800005F0B5FC012816D183480078C0F380102F
:1005900060B18148006820F040007F490860012474
:1005A0000F20029000217B4805F0A1FC77480078DD
:1005B000401C764908704CE12EE10EE1EEE0BFE010
:1005C0009FE07FE05FE03FE01FE0FFE770480168E9
:1005D000704805F08CFC012816D16F480078C0F3F4
:1005E000C01060B16C48006820F080006A49086063
:1005F0000124112002900021664805F078FC634830
:100600000078401C6149087023E161480168614835
:1006100005F06DFC012816D15F480088C0F300206A
:1006200060B15D48006820F480705B490860012477
:10063000132002900021574805F059FC53480078D8
:10064000401C5249087004E151480168514805F0C6
:100650004EFC012816D150480088C0F3402060B1FC
:100660004D48006820F400704B49086001241520B3
:1006700002900021474805F03AFC44480078401CAD
:1006800042490870E5E042480168424805F02FFC05
:10069000012816D140480088C0F3802060B13E4850
:1006A000006820F480603C49086001241720029013
:1006B0000021384805F01BFC34480078401C3349C1
:1006C0000870C6E032480168324805F010FC012885
:1006D00016D131480088C0F3C02060B12E480068B0
:1006E00020F400602C4908600124192002900021A8
:1006F000284805F0FCFB25480078401C2349087079
:10070000A7E023480168234805F0F1FB012816D132
:1007100021480088C0F3003060B11F48006820F411
:1007200080501D49086001241B20029000211948B7
:1007300005F0DDFB15480078401C1449087088E07E
:1007400013480168134805F0D2FB012816D112485E
:100750000088C0F3403060B10F48006820F40050BA
:100760000D49086001241D2002900021094805F070
:10077000BEFB06480078401C0449087069E0000090
:10078000B0090020FCFF0008D4090020D80900208F
:10079000E0090020DC090020CC090020F8480168AD
:1007A000F84805F0A4FB012816D1F7480088C0F3EB
:1007B000803060B1F448006820F48040F24908605D
:1007C00001241F2002900021EE4805F090FBEF4825
:1007D0000078401CED4908703BE0E9480168E948B1
:1007E00005F085FB012816D1E7480088C0F3C0302A
:1007F00060B1E548006820F40040E3490860012446
:10080000262002900021DF4805F071FBDF480078C8
:10081000401CDE4908701CE0D9480168D94805F041
:1008200066FB012814D1D8480068C0F3004060B1CD
:10083000D548006820F48030D3490860012428207E
:1008400002900021CF4805F052FB0020CF490870EC
:1008500000BF00BF012C03D1694600200DF09AF9BA
:100860003EBD1FB5CA4A07CA01AB07C3C948407895
:1008700020B101280ED0022833D119E001F004FD87
:1008800001A900200DF086F9C2484078401CC149FA
:1008900048702AE001F047FD0420029001A90020E1
:1008A0000DF078F9BB484078401CBA4948701CE00C
:1008B00041F28831B84805F01AFB70B10021B64802
:1008C00005F015FBCE200090009802F04CFB1B2099
:1008D000029001A900200DF05DF90020AD4948709B
:1008E00003E00020AB49487000BF00BFAB48007870
:1008F000022802D10020A94908701FBD30B591B06F
:10090000442168460FF072F9002403F0F7FD044615
:10091000012004EB4401A24A126802F8210004EB12
:1009200044009F49096801EB80008472684604F026
:1009300030FB04EB44009A49096801EB8000DDF8C4
:10094000021040F8011FDDF80610416002F0D4FDEE
:1009500005462A460021204604F00FFD9148006814
:100960000078401C8F490968087011B030BD30B55F
:100970008DB0874A0C3207CA0AAB07C300241C217A
:1009800003A80FF033F983484078062874D2DFE8D3
:1009900000F003256385A3AF0021834805F0A7FA83
:1009A00002207E490870002004F001FB0020ADF811
:1009B00024000A2207A968460FF0BCF803A80FC854
:1009C00002F0C3FB2A200B900AA900200DF0E2F8E8
:1009D00070484078401C6F494870A9E000210846E3
:1009E00004F0B8FA012004F0E2FA0446032C01D026
:1009F000022C03D1002004F0DAFA2CE0012C15D1EE
:100A0000002004F0D4FA0720ADF824000A2207A938
:100A100068460FF08FF803A80FC802F096FB2A2053
:100A20000B900AA900200DF0B5F814E0042C12D1A7
:100A3000002004F093FA002004F0B9FA02F05CFD03
:100A4000012803D104205349487004E051484078FC
:100A5000401C504948706BE00121002004F07AFAF4
:100A6000012004F0A4FA0446032C01D0022C04D186
:100A7000002004F09CFA10E059E0042C0DD1012074
:100A800004F06CFA002004F092FA002004F069FBF4
:100A900040484078401C3F49487049E0012100200F
:100AA00004F058FA012004F05CFB0446032C01D04A
:100AB000022C03D1002004F07AFA0CE0042C0AD1B5
:100AC000012004F04BFA002004F04BFB3148407841
:100AD000401C304948702BE020200B900AA90120CF
:100AE0000DF058F82B484078401C2A4948701FE008
:100AF00004F024FAB8B1FFF701FF00200B90192091
:100B000001F005FB0AA900200DF044F821484078C7
:100B1000401C204948701C48006820F0080008303C
:100B20001949086002E004201A49487000E000BF3B
:100B300000BF41F288311C4805F0D9F988B1002086
:100B4000164908700CF064FE054601F0E0FA00203A
:100B50000B900AA90DF01EF8002004F028FA04F00A
:100B6000F5F90DB030BD3EB5094A183207CA8DE817
:100B70000700002407484078C0B101283DD11FE09C
:100B8000E0090020DC090020CC090020D809002061
:100B900014000108B0090020E4090020C009002069
:100BA000C4090020C8090020E80900206946012086
:100BB0000CF0F0FFF7484078401CF64948701DE003
:100BC00004F0BCF9A8B904F0C1F90020F24908709A
:100BD0000CF01EFE0446204601F099FA0020019018
:100BE00069460CF0D7FFEB484078401CE949487053
:100BF00002E00020E749487000E000BF00BF3EBDB2
:100C000010B58CB0E54A07CA09AB07C3142104A884
:100C10000EF0ECFF00240020009001900290039061
:100C2000DC48407805287CD2DFE800F0031222334C
:100C30003F000020DA49088001F0A8FB09A9002044
:100C40000CF0A8FFD3484078401CD2494870B5E06A
:100C5000D348008801F07EFC08200A9009A90020F2
:100C60000CF098FFCB484078401CCA494870A5E07A
:100C700001F0FFFB06200A9009A900200CF08AFF72
:100C8000C84801F019FCC3484078401CC14948706D
:100C900094E007200A9009A900200CF07BFFBD48D2
:100CA0004078401CBB49487088E004A801F004FC6F
:100CB000082206A9BB4808300EF0CBFEB0B101F007
:100CC00073FBB848069981600799C16005200A90B6
:100CD00009A900200CF05EFF02E0032005F01FF9D7
:100CE000002108460CF0B9FF0028F6D101F0ECFB1A
:100CF00000285ED002E00A2005F011F90021084624
:100D00000CF0ABFF0028F6D1684602F0D4FD0822B3
:100D1000A54906A80EF09DFE38B10822694606A82E
:100D200000E04AE00EF095FE80B9132001F0EFF9E3
:100D300000200A9009A90CF02DFF00209849088096
:100D400094484078401C9349487035E00822974900
:100D500006A80EF07EFE28B1082202A906A80EF011
:100D600078FE00BB03F0A6FB01280BD0022807D0B9
:100D7000032809D1002404F014F9FFF7BFFD03E0B4
:100D8000142401E0152400BF00BF204601F0BFF984
:100D900000200A9009A90CF0FDFE7E484078401C16
:100DA0007C49487008E001207D49088079494870F5
:100DB00002E003207749487000E000BF00BF0CB09C
:100DC00010BD00B587B0754A6C3207CA04AB07C3C3
:100DD00000200390029076A000680190754800788A
:100DE00020B1012811D0022839D118E0039802F06F
:100DF00069FA2C20059004A900200CF0CBFE6D4868
:100E00000078401C6B4908702AE004A900200CF00F
:100E1000C1FE68480078401C6649087020E002F076
:100E200057FA0390BDF80C00012814D10020614945
:100E30000870584948700846007813280ED1019868
:100E40000290029802F0B7FD02F0BAFD002101A85D
:100E500003F030FF02E001205649087000E000BFB7
:100E600000BF07B000BD10B598B04C490C31D1E9B6
:100E700000028968CDE9162115900020119012908A
:100E8000139014900F9010904BA2D2E9001092682A
:100E9000CDE90D020C910020089009900A900B906A
:100EA00005900690079004903A4840780A286FD23F
:100EB000DFE800F0051A26323E4A5662889402F0B6
:100EC00075FD0490002104A803F0F4FE02F0CCFDAF
:100ED0000920169015A900200CF05CFE2D484078E2
:100EE000401C2C494870D5E10B20169015A9002014
:100EF0000CF050FE27484078401C26494870C9E154
:100F00000D20169015A900200CF044FE21484078D1
:100F1000401C20494870BDE10E20169015A9002004
:100F20000CF038FE1B484078401C1A494870B1E16B
:100F30001020169015A900200CF02CFE15484078C2
:100F4000401C14494870A5E10C20169015A90020FA
:100F50000CF020FE0F484078401C0E49487099E183
:100F60000F20169015A900200CF014FE09484078B7
:100F7000401C084948708DE11120169015A90020E9
:100F80000CF008FE03484078401C0249487081E19B
:100F90007FE10000B0090020C009002038000108EE
:100FA000EC0900209C7D0020EE090020F6090020BD
:100FB000FFFFFFFF110A00201F1C1F1E1F1E1F1F07
:100FC0001E1F1E1F0A20169015A900200CF0E2FD1E
:100FD000F9484078401CF84948705BE101F083FB18
:100FE00010B901F046FBA8B10B20169015A90020FE
:100FF0000CF0D0FD02E00A2004F091FF0021084629
:101000000CF02BFE0028F6D10D20169015A900201B
:101010000CF0C0FD01F008FC18B901F0CFFB00286E
:101020003ED001F0FEFB41F28831884202DC01F043
:10103000DAFB30B301F0D7FB38B12B2001F067F8B1
:101040000020169015A90CF0A5FD02F078FB0446CF
:1010500001F0E4FB08A802F007FB08A801F09CFBE4
:1010600002E00A2004F05BFF002108460CF0F5FDC9
:101070000028F6D10E20169015A900200CF08AFD4C
:101080000EE001F0CEFB044602F05CFB02F05DFBDB
:1010900008A801F08AFB08A802F0EFFA02F0F6FABD
:1010A00001F057FC30B301F051FCB0F5167F1ADDAA
:1010B00002F0A1FB044601F046FC02F077FC03902D
:1010C00001F0E7FB02E00A2004F029FF00210846B6
:1010D0000CF0C3FD0028F6D11020169015A90020B1
:1010E0000CF058FD06E001F031FC044602F086FBEE
:1010F00002F087FB01F0DFFB90B301F0FBFBD0B9FE
:1011000002F079FB044601F01EFC02F04FFC039054
:1011100001F0BFFB02E00A2004F001FF00210846B5
:101120000CF09BFD0028F6D11020169015A9002088
:101130000CF030FD14E001A801F0A3FB01A807C8E2
:1011400005AB07C3082204A905A804F0DCFF049836
:1011500002F031FC02F034FC002104A803F0AAFDE7
:1011600001F03CFA00287BD001F029FA11A801F027
:101170002DFA11A8007A303811A909893022C2EB62
:10118000212101EB810100EB410080B2ADF83C0070
:10119000BDF84E003038BDF84E10C2EB212101EBF6
:1011A000810100EB4100C0B28DF83E00BDF8500057
:1011B0003038BDF85010C2EB212101EB810100EB6A
:1011C0004100C0B28DF83F00BDF844003038BDF892
:1011D0004410C2EB212101EB810100EB4100C0B2C0
:1011E0008DF84000BDF846003038BDF84610C2EB1F
:1011F000212101EB810100EB4100C0B28DF84100DB
:10120000BDF848003038BDF84810C2EB212101EB91
:10121000810100EB4100C0B28DF842009DF8400012
:1012200018281ADA9DF841003C2816DA9DF8420089
:101230003C2812DA9DF83E0078B19DF83E000C285B
:101240000BDC9DF83F0040B19DF83F109DF83E003B
:10125000401E0CAA105C814213DD01F092F903E0FC
:1012600013E00A2004F05BFE002108460CF0F5FCB8
:101270000028F6D10920169015A900200CF08AFC50
:1012800003E0DDE90F0105F0F3FA05204A49487053
:1012900000E000BF00BFFFF794FD18B010BD70B5AF
:1012A00092B0002420210AA80EF0A0FC434A07CAED
:1012B00007AB07C300254048407830B101280DD066
:1012C00002285AD003287DD164E000203C490880E0
:1012D00039484078401C384948709AE0002423E09F
:1012E00002E00A2004F01BFE002108460CF0B5FCC9
:1012F0000028F6D132490988214488B20AA904F0AD
:10130000C1F840B12E4800882044401C81B20AA890
:1013100001F052FB01E001F049FB099407A900200C
:101320000CF038FC601CC4B20A2CD9DB03F0AAFF15
:1013300008B9012006E003F0A5FF401E0A2190FB3A
:10134000F1F0401C85B21E4800880A2190FBF1F0A4
:10135000401C86B200231A462946304601F02DFD76
:10136000132008900020099007A90CF013FC1248E4
:101370004078401C104948704BE014200890002031
:10138000099007A90CF006FC0B484078401C0A495C
:1013900048703EE00DF11A0106A801F028FDBDF8E5
:1013A0001800B8B1064800880A280CDD04480088F7
:1013B0000A380349088009E0B009002050000108FC
:1013C000FE09002021E00020F84908800120F849AA
:1013D000487019E0BDF81A0098B103F053FFF349C3
:1013E00009880A31884208DDF04800880A30EF4950
:1013F00008800120EE49487006E00220EC49487060
:1014000002E00220EA49487003E00020E849487001
:1014100000BF00BF12B070BD3EB5E64A07CA8DE8F6
:101420000700E348407848B90021E34804F05FFD35
:10143000DF484078401CDE49487000E000BF00BF34
:101440004FF4FA61DC4804F052FD60B10021DA4843
:1014500004F04DFD0CF0DCF9044600F058FE69463E
:1014600000200CF097FB3EBD0EB5D24A0C3207CAE5
:101470008DE80700CE48407820B1012812D002281C
:1014800039D11BE00021CD4804F031FD01F0ECFC26
:10149000694600200CF07EFBC5484078401CC449DA
:1014A000487029E016200190694600200CF072FB7C
:1014B000BF484078401CBE4948701DE001F0D8FC90
:1014C000A8B101F0D1FC03F0E8FE002003F0E9FE32
:1014D00000200190022000F01AFE694600200CF066
:1014E00059FBB3484078401CB149487002E00120E4
:1014F000AF49487000E000BF00BF41F28831AF48FB
:1015000004F0F5FC58B10021AC4804F0F0FC0220D6
:1015100000F0FDFD0020019069460CF03BFB0EBD84
:101520000EB5A44A183207CA8DE80700A0484078D3
:1015300020B1012812D0022838D11BE00021A04898
:1015400004F0D5FC01F090FC694600200CF022FB71
:1015500097484078401C9649487028E01720019031
:10156000694600200CF016FB91484078401C9049D9
:1015700048701CE001F0A5FCA0B101F09EFC012028
:1015800090490968487000200190132000F0BFFDC9
:10159000694600200CF0FEFA85484078401C8449DA
:1015A000487002E001208249487000E000BF00BF9F
:1015B00043F69821824804F09AFC58B100218048F3
:1015C00004F095FC132000F0A2FD00200190694674
:1015D0000CF0E0FA0EBD1FB5764A243207CA01AB03
:1015E00007C3002000907248407820B1012812D033
:1015F00002284BD11BE00021734804F078FC01F075
:1016000085FC01A900200CF0C5FA69484078401C0F
:10161000674948703BE01920029001A900200CF0B6
:10162000B9FA63484078401C614948702FE0684629
:1016300001F073FCBDF800000C2803DC6148006871
:10164000807818B100205A4948701EE0BDF80200A9
:10165000C0B101205B4909688870BDF80000401ED8
:10166000C1B258480068C170132000F050FD00203E
:10167000029001A90CF08EFA4D484078401C4C496C
:10168000487002E001204A49487000E000BF00BFF6
:1016900043F698214C4804F02AFC58B100214A48EE
:1016A00004F025FC132000F032FD0020029001A977
:1016B0000CF070FA1FBD1FB53E4A303207CA01ABAD
:1016C00007C33B48407870B9CE200090009801F0E5
:1016D0004AFC01A900200CF05DFA35484078401C16
:1016E0003349487003E000203149487000BF00BF13
:1016F0001FBD00B593B02F4A3C3207CA10AB07C3D9
:1017000014210BA80EF072FA142106A80EF06EFA3E
:101710002748407806287DD2DFE800F0030C253DFD
:101720005A6800202949087021484078401C204907
:101730004870D6E006A801F02FFC24480078ADF8E8
:101740002A000A98009006A80FC801F034FC28204F
:10175000119010A900200CF01DFA15484078401C8B
:1017600013494870BDE00BA801F016FC0020ADF84D
:101770003C000F9800900BA80FC801F091FC2720A7
:10178000119010A900200CF005FA09484078401C7F
:1017900007494870A5E010A900200CF0FBF90448A7
:1017A0004078401C024948709BE00000FE09002080
:1017B000B00900205C000108000A0020040A002093
:1017C000080A0020C80900200C0A0020100A002086
:1017D00001F024FC2820119010A900200CF0DAF967
:1017E000FE484078401CFD4948707AE00BA801F0A3
:1017F00061FCBDF83C0001286ED1BDF82C00BDF89D
:101800003410884261D1BDF82E10BDF836008142F7
:101810005BD100E064E0BDF83010BDF838008142D3
:1018200053D1BDF83210BDF83A0081424DD1BDF818
:101830002C00B0F5405F48DBBDF83400B0F5405FE8
:1018400043DB02A802F037F8E4480078072817D1F4
:10185000DDE90B01CDE9020102A80FC802F033F85F
:1018600002F038F8132000F052FC0020119010A96B
:101870000CF090F9D9484078401CD84948702EE0C7
:10188000082202A90BA80EF0E4F8B8B1DDE90B01BB
:10189000CDE9040102A80FC802F015F802F01AF809
:1018A000132000F034FC0020119010A90CF072F904
:1018B000CA484078401CC949487010E00220C84915
:1018C00008700120C549487009E00220C449087029
:1018D0000120C249487002E00320C049487000E07E
:1018E00000BF00BF13B000BD10B598B0BD4A07CA15
:1018F00015AB07C3AFF6481000681490AFF6501050
:10190000006813900020129000241190109018216C
:101910000AA80EF06BF9B14840780C287ED2DFE8B7
:1019200000F006313D47FEFDFCFBFAF9F8F7AE4842
:10193000002101600068099001F0F9FC119801F0A4
:10194000FEFB0020A94908701A21A9480EF02CF9C5
:101950000120A74908830846016900914169019166
:10196000008BADF808001A22A14903A80EF09DF8DB
:1019700003A80FC801F0E9FB98484078401C97493C
:10198000487056E22A20169015A900200CF002F9A2
:1019900092484078401C914948704AE215A90020BD
:1019A0000CF0F8F88D484078401C8C49487040E2B3
:1019B00003A801F0D9FB1A2203A98D480EF075F88F
:1019C00001F0B0FC099088480999016001F0D4FB4E
:1019D00060B901F010FC48B98548808A00287DD0A4
:1019E0008348808A814909788842F8D08048808A73
:1019F000032802DD00207E4988827D48C08A0128B4
:101A000002DD00207A49C8827948007D7749087054
:101A100008460078012806D0022800E008E208D035
:101A2000032812D10BE001206F4908800020488074
:101A30000BE002206C4908800020488005E000206F
:101A4000694908800220488000BF00BF01F06FFB99
:101A5000119001F0A7FB58B303206349088001F0FF
:101A6000E4FB10B10120604948806148808A032866
:101A700002D001F0DAFB18B1042058494870D8E1CF
:101A800001205B4908830846016900914169019181
:101A9000008BADF808001A22554903A80EF005F88E
:101AA00003A80FC801F051FB01204C4948701FE00A
:101AB0004F48002101604160018101204C490883A9
:101AC00008460169009141690191008BADF8080059
:101AD0001A22474903A80DF0E8FF00E09EE003A8A2
:101AE0000FC801F032FB01203C4948708DF84000DE
:101AF00001F09BFBC0B301203B49488001F052FB41
:101B000010B10320384908803948808A012807E04D
:101B100076E169E148E11AE1EBE0DEE0BBE081E07B
:101B200006D03348808A022802D001F03BFB18B16E
:101B300004202A4948707CE101202D490883084689
:101B40000169009141690191008BADF808001A22EA
:101B5000274903A80DF0A9FF03A80FC801F0F5FA63
:101B600001201E4948701FE0FFE721480A3000218C
:101B700001604160018101201D4908830846016917
:101B8000009141690191008BADF808001A221849B3
:101B900003A80DF08AFF03A80FC801F0D6FA0120B0
:101BA0000E4948708DF841009DF84000012803D18E
:101BB0009DF84400012807D09DF84500012830D148
:101BC0009DF8410001282CD100208DF840008DF8AF
:101BD0004100119801F0B3FA03200BE0B009002096
:101BE000100A0020B00001081A0A0020180A00207C
:101BF000AE7D0020FE4908830846016900914169D5
:101C00000191008BADF808001A22F94903A80DF0E4
:101C10004CFF03A80FC801F098FA02E00220F54932
:101C2000487006E11A22F249F3480DF03EFFF048F1
:101C3000808A30B101280BD002280AD003280ED1A7
:101C400000E000BF082214A9E94804F05CFA07E0AC
:101C500006E001F0ABFE12901298149000E000BF75
:101C600000BF002114A803F025F8E148808A03286A
:101C700007D000201390082213A9DD480A3004F091
:101C800042FA002113A803F01DF8DA484078401CFE
:101C9000D8494870CDE00220D74908830846016939
:101CA000009141690191008BADF808001A22D249D8
:101CB00003A80DF0FAFE03A80FC801F046FA2A2087
:101CC000169015A900200BF065FF03F03FF9C948F5
:101CD0004078401CC7494870ABE02020169015A9F9
:101CE00001200BF057FFC3484078401CC1494870A1
:101CF0009FE003F023F930B3002003F058F90021EE
:101D0000BE4804F0F4F80420BB4908830846016982
:101D1000009141690191008BADF808001A22B64983
:101D200003A80DF0C2FE03A80FC801F00EFA2A2086
:101D3000169015A900200BF02DFFAE484078401CEE
:101D4000AC49487002E00620AA49487071E041F2AF
:101D50008831AA4804F0CBF8E8B90321002003F049
:101D6000F9F8012003F023F90446052C08D10620D8
:101D7000A14908839F484078401C9E49487012E062
:101D8000012C10D105209C4908839A484078401CBA
:101D90009849487007E0052097490883954840789E
:101DA000401C9449487044E0002003F000F9924838
:101DB0000169009141690191008BADF808001A2278
:101DC0008D4903A80DF071FE03A80FC801F0BDF9FD
:101DD0002A20169015A900200BF0DCFE85484078DB
:101DE000401C8449487024E02020169015A9012049
:101DF0000BF0D0FE7F484078401C7E49487018E0C8
:101E000004A802F067FF182204A90AA80DF092FEA8
:101E100003F094F840B99DF82C0028B103F096F82F
:101E200005207449487002E00A207249487000E0B9
:101E300000BF00BFFEF7C5FF71480068099001F0C0
:101E400076FA2D20169015A900200BF0A3FE18B0ED
:101E500010BD70B586B06B4A07CA03AB07C301A8B3
:101E600001F044FB4FF0FF346248407820B1012874
:101E700018D0022843D121E002980DF05BFF85B213
:101E800001980DF057FF86B22946304601F067FAF7
:101E900003A900200BF07EFE56484078401C5549AF
:101EA00048702CE01D20049003A900200BF072FE66
:101EB00050484078401C4F49487020E001F056FAE5
:101EC0000446601CB8B1012C03D100204949487078
:101ED00014E0C82004F023F800BF4B48006800F469
:101EE000E0604A490843001D47490860BFF34F8F2F
:101EF00000BF00BFFEE701203E49487000BF00BFA1
:101F000006B070BD10B500203A49087048704048CE
:101F1000406848603F480021017001F0F9FD3E49EA
:101F2000086001F0F9FD3D4908603D48002101606D
:101F300010BD3EB5334A0C3207CA8DE807000024B5
:101F400034480078002872D1FEF7DCF9A8B9642182
:101F5000344803F0CCFF58B10021324803F0C7FFEA
:101F6000244800782D2803D0694601200BF012FE8A
:101F700000202A490968C88003E001202749096830
:101F8000C88002F0DBFF88B31A4800782D284ED0B5
:101F900002F0DCFF21480068007A08BB02F08AFAF0
:101FA000012812D0022806D0032818D1012019498F
:101FB0000870182413E014241948006820F4807075
:101FC00000F580701649086009E01524144800687F
:101FD00020F4006000F500601149086000BF00BFF8
:101FE000204600F094F8002001901DE01FE0000062
:101FF000AE7D0020B0090020C87D0020140A00201A
:102000001A0A0020BC0001080CED00E00000FA05EF
:1020100034FF0008C0090020C4090020C8090020BE
:10202000CC090020200A002069460BF0B3FD3EBD1C
:1020300000B585B02B4A07CA02AB07C3684604F057
:10204000C7FCDDE9000100F098F802A900200BF0C0
:10205000A1FD05B000BD3EB50446224A0C3207CAB8
:102060008DE80700204600F052F8694600200BF08A
:1020700091FD3EBD0EB51B4A183207CA8DE8070018
:10208000FFF740FF4FF4486003F049FFFEF789F97E
:1020900000BF0BF0C0FB03F089FD012803D1FFF75F
:1020A00048FF02F0C8FCFEF793F94FF496710E4812
:1020B00003F01DFF48B1694600200BF06BFD0021C5
:1020C000094803F014FFFFF7B3FF142003F027FFC4
:1020D000DFE710B50C23054A0021054804F082FB18
:1020E00010BD0000D4000108240A0020307D00202B
:1020F000752000080021F84801784FF6FF7000EACB
:102100000121F54840780143F448008870470146B2
:102110000812F34A10705170012070475A2100F8DC
:10212000011B012100F8011BED49097800F8011B92
:10213000EB49497800F8011B704710B503460C467F
:102140001A460BB9002010BD8420108082209070A8
:102150000220D070101DFFF7E1FF0120F3E70246D7
:102160000B4611460AB900207047142008808320CE
:1021700088700120C87000BFF6E703B543F2302035
:10218000D849C880BDF800000A2190FBF1F201FB9C
:1021900012003030BDF800100A2291FBF2F130310C
:1021A00000EB012081B2CF4801819DF802000A2195
:1021B00090FBF1F201FB120030309DF802100A2270
:1021C00091FBF2F1303100EB0120C64948819DF8C6
:1021D00003000A2190FBF1F201FB120030309DF860
:1021E00003100A2291FBF2F1303100EB0120BD49CE
:1021F00088819DF804000A2190FBF1F201FB120096
:1022000030309DF804100A2291FBF2F1303100EBDE
:102210000120B44908809DF805000A2190FBF1F2E5
:1022200001FB120030309DF805100A2291FBF2F1FB
:10223000303100EB0120AB4948809DF806000A21AF
:1022400090FBF1F201FB120030309DF806100A22DB
:1022500091FBF2F1303100EB0120A249888001208E
:102260000CBD70B505460E462C460DB9002070BD5C
:102270004FF4885020808220A0700720E070204614
:102280000BF0A1FB0120F2E770B50024002501F05E
:1022900041FC064600BF30E0305D062818D006DC61
:1022A000062823D2DFE800F010161218191AFD28AC
:1022B0001AD004DC072812D0FC2817D110E0FE2821
:1022C00011D0FF2812D10CE0002510E001250EE00E
:1022D00005250CE002250AE000BF00BF00BF00BFDB
:1022E00000BF032503E000BF042500E000BF00BFDE
:1022F0007D4820F81450601CC4B20C2CCCDB70BD9F
:1023000070B505460E462C460DB9002070BD41F251
:10231000101020808220A0700C20E07020460BF06E
:1023200052FB0120F2E710B501F008FC6E4908836A
:1023300001F021FC6C49488302F0D8FA6A4988838D
:1023400002F02FFA012802D103206749888302F0A6
:1023500025FA012802D102206349888302F0C9FAD4
:102360006149C88310BD70B505460E462C460DB9AF
:10237000002070BD4FF4895020808220A07004207E
:10238000E07020460BF01FFB0120F2E72021002027
:1023900000BF06E001EB0122544B23F81020421C41
:1023A000D0B20428F6DB70477EB500204F4B0833CF
:1023B0004E4900BF03E020240C54441CE0B208281E
:1023C000F9DB002004E01C5C0DF80040441CE0B286
:1023D0000728F8DB00200FE0012404EB40041DF87F
:1023E00004201DF81040012505EB40050DF80540BF
:1023F0000DF81020441CE0B20428EDDB002008E0BA
:102400001DF80040FF2C00D105E02A240C54441C88
:10241000E0B20828F4DB00BF082806DA03E0202435
:102420000C54441CE0B20828F9DB00200BE001EB5F
:102430004004627811F8104001EB40056C7001F81F
:102440001020441CE0B20428F1DB7EBD70B50546C7
:102450000E462C460DB9002070BD41F23010208090
:102460008220A0700420E07020460BF0ACFA01201E
:10247000F2E72021002000BF08E001EB012293B227
:102480001A4A083222F81030421CD0B20428F4DB79
:10249000704770B505460E462C460DB9002070BD3C
:1024A0004FF48A5020808220A0700420E0702046E3
:1024B0000BF089FA0120F2E710B5044612220B490D
:1024C00020460DF0F2FA10BD7CB500240025002056
:1024D0000090019000BF1BE02A0A0020540A00204F
:1024E000280A0020E27D0020F07D0020107E0020E0
:1024F000FA4830F81400FF21B1EB102F04D0F74850
:1025000010F81400FF2801D1012503E0601CC4B2BB
:10251000042CEDDB00BF2022082168460DF03CFBB7
:10252000042C06D108226946EC480DF092FA00B15D
:10253000012528467CBD02460B4611460AB90020FB
:1025400070474FF48A500880832088700420C87038
:102550000120F5E7E14908390882704770B5054662
:102560000E462C460DB9002070BD41F2501020805F
:102570008220A0700120E07020460BF024FA012098
:10258000F2E710B5D648C088D649C880D44801893A
:10259000D4480181D2484089D2494881D0488089B5
:1025A0008881CF4800880880CD4840884880CC4842
:1025B000808888800E22CC480DF077FA10BD10B5C7
:1025C0000E22C849C8480DF070FA10BD10B5044677
:1025D0000E22C44920460DF068FA10BD10B50E2237
:1025E000C049C1480DF035FA08B1012010BD0020E6
:1025F000FCE770B505460E462C460DB9002070BDAF
:102600004FF48B5020808220A0700C20E070204678
:102610000BF0D9F90120F2E702460B4611460AB940
:10262000002070474FF48B500880832088700C2066
:10263000C8700120F5E70020AA49C8814883704787
:10264000A94948837047012802D002280ED106E02C
:102650000121A44A91830022A249CA8307E00021F4
:10266000A04A918301229F49CA8300E000BF00BFB6
:10267000704710B500249B48408B012803D099482F
:10268000408B022814D19748408B9749488300F02B
:102690008FFF9549498B88420AD09349488B00F0B7
:1026A0008AFF00F08BFF9049488BFFF7CCFF012495
:1026B000204610BD8C49C8817047012802D00228ED
:1026C0000ED106E00121874A1182002285494A8203
:1026D00007E00021834A1182012282494A8200E0F8
:1026E00000BF00BF704710B500247E48C089012894
:1026F00003D07C48C089022817D17A48C0897A491A
:10270000C88100F0F9FE7849C98988420DD00120BE
:102710007449C8817449C88900F0F1FE00F0F2FEE6
:102720007149C889FFF7C9FF0124204610BD70B563
:1027300005460E462C460DB9002070BD41F27010C2
:1027400020808220A0700220E07020460BF03BF930
:102750000120F2E702460B4611460AB900207047F5
:1027600041F270100880832088700220C870012018
:10277000F5E770B505460E462C460DB9002070BD34
:102780004FF48C5020808220A0700420E0702046FE
:102790000BF019F90120F2E710B504460E2221468C
:1027A000504820300DF081F910BD10B504460E22BE
:1027B0004C49203120460DF078F910BD1FB500249A
:1027C00000200090019002900390684600F04CFFBA
:1027D0000E226946434820300DF03BF900B1012438
:1027E000204604B010BDF8B500240026FF2000905C
:1027F0003C4D203500BF0CE001226946284603F01D
:10280000CEFB08B1012606E06D1CFF200090601C85
:10281000C4B20E2CF0D300BF3046F8BD31498882D7
:1028200070473048808A704710B5002400F087FF59
:102830002C49898A884200D00124204610BD0246D6
:102840000B4611460AB90020704741F290100880EB
:10285000832088700820C8700120F5E770B5054610
:102860000E462C460DB9002070BD41F2901020801C
:102870008220A0700820E07020460BF0A4F8012010
:10288000F2E71A490A6802604A68426009890181D0
:10289000704701B504221549684603F00FFC42F267
:1028A00020001249088112480A6802604A684260A2
:1028B0000989018108BD10B500240A220B490C4882
:1028C0000DF0C7F840B10A4808490A6802604A6832
:1028D0004260098901810124204610BD187E002034
:1028E000E27D0020227E0020507E00200A7F002012
:1028F000147F00200020002100BF0FE0F84A32F8CA
:102900001120FF23B3EB122F04D0F54A12F8112047
:10291000FF2A01D1002015E04A1CD1B20429EDDBC9
:10292000EF4AD288FF23B3EB122F0AD0EC4A9279F8
:10293000FF2A06D0EA4A12894FF6FF739A4200D165
:10294000012000BF7047E749C8827047E548C08A48
:10295000704710B5002400F04EFFE249C98A884252
:1029600000D00124204610BD02460B4611460AB98C
:10297000002070474FF48D50088083208870072016
:10298000C8700120F5E770B505460E462C460DB916
:10299000002070BD4FF48D5020808220A070072051
:1029A000E07020460BF00FF80120F2E710B54C2143
:1029B000CD480DF0F9F810BDF0B587B005460E46CC
:1029C0000024002006901422C84901A80DF0B2F896
:1029D00000274C21C4480DF0E7F8C34A00213046D7
:1029E00003F014FB00BF28E0A81C005D0011069056
:1029F00006A803F001FB9DF8180030304FF6FF7178
:102A000001EA0021B848083020F81410A81C005D25
:102A100000F00F00069006A803F0EEFAB248083066
:102A200030F814109DF818003030084481B2AE48D8
:102A3000083020F81410601CC4B2042CD4D343F224
:102A40003020A9490882A8890A2190FBF1F201FBF4
:102A500012003030A9890A2291FBF2F1303100EBEB
:102A6000012081B2A0484182A87B0A2190FBF1F0AD
:102A7000303000F53C5081B29B488182A87B0A210E
:102A800090FBF1F201FB120030302F2101EB00200E
:102A900081B29548C182E87B0A2190FBF1F201FBEB
:102AA00012003030E97B0A2291FBF2F1303100EB69
:102AB000012081B28C480183287C0A2190FBF1F02F
:102AC000303000F5005081B287484183287C0A21CC
:102AD00090FBF1F201FB120030303A2101EB0020B3
:102AE00081B281488183687C0A2190FBF1F201FB6D
:102AF00012003030697C0A2291FBF2F1303100EB98
:102B0000012081B27848C18343F23020764908849D
:102B1000A88A0A2190FBF1F201FB12003030A98A49
:102B20000A2291FBF2F1303100EB012081B26E48B4
:102B30004184A87B0A2190FBF1F0303000F53C5035
:102B400081B269488184A87D0A2190FBF1F201FBE2
:102B5000120030302F2101EB002081B26248C18485
:102B6000E87D0A2190FBF1F201FB12003030E97D93
:102B70000A2291FBF2F1303100EB012081B25A4878
:102B80000185287E0A2190FBF1F0303000F50050DD
:102B900081B255484185287E0A2190FBF1F201FB64
:102BA000120030303A2101EB002081B24E4881857D
:102BB000687E0A2190FBF1F201FB12003030697E41
:102BC0000A2291FBF2F1303100EB012081B246483C
:102BD000C185A87A401CC7B2434A3032002138462A
:102BE00003F014FAA88B012802D002283AD11BE086
:102BF000002416E03E4911F8140001023A48323030
:102C000020F8141030F814003949022202FB041194
:102C10004978084481B23448323020F81410601CDE
:102C2000C4B2032CE6D31EE0002418E03048801D17
:102C300010F8140001022C48323020F8141030F83B
:102C400014102B48801D022202FB04004078084427
:102C500081B22548323020F81410601CC4B2032C15
:102C6000E4D300E000BF00BF68780C285FD2DFE843
:102C700000F05E060C131A21282F434950571422E6
:102C80001C4901A80CF056FF51E0142219491431D7
:102C900001A80CF04FFF4AE014221649283101A880
:102CA0000CF048FF43E0142212493C3101A80CF01B
:102CB00041FF3CE014220F49503101A80CF03AFFCB
:102CC00035E014220B49643101A80CF033FF2EE0EB
:102CD00014220849783101A80CF02CFF27E00000ED
:102CE0000A7F0020227E00207E7E0020FC0001085A
:102CF000E00D0020EC0D00201422FC4901A80CF08E
:102D000019FF14E01422F949143101A80CF012FF44
:102D10000DE01422F549283101A80CF00BFF06E064
:102D20001422F2493C3101A80CF004FF00BF00BF9F
:102D3000002414E001A911F814000102EC4820F865
:102D4000141030F8140001A9022202FB0411497882
:102D5000084481B2E64820F81410601CC4B20A2C62
:102D6000E8D307B0F0BD30B500230022E049383980
:102D7000262300BF09E00C88241200F8014B11F84B
:102D8000024B00F8014B541CE2B29A42F3DB30BD17
:102D900070B505460E462C460DB9002070BD4FF4A7
:102DA000804000EB062020808220A0702620E0706A
:102DB000201DFFF7D8FF0120F0E72DE9F04107467D
:102DC0000C4615461E461821CA480CF0EDFEC94AAD
:102DD0000021384603F01AF9C64A0832002120467D
:102DE00003F014F9C3488582C682BDE8F081C14A68
:102DF000928A0280BF4AD28A0A80704730B5002387
:102E00000022BC490C2300BF09E00C88241200F802
:102E1000014B11F8024B00F8014B541CE2B29A42EC
:102E2000F3DB30BD70B505460E462C460DB90020CB
:102E300070BD41F2B01020808220A0700C20E070A4
:102E4000201DFFF7DBFF0120F2E702460B4611468B
:102E50000AB90020704741F2B010088083208870C2
:102E60000C20C8700120F5E70020A34908807047B6
:102E7000A1480088704770B505460E462C460DB92E
:102E8000002070BD4FF48E5020808220A070012061
:102E9000E07020460AF097FD0120F2E702460B465B
:102EA00011460AB9002070474FF48E5008808320E5
:102EB00088700120C87000BFF5E700208F490883A3
:102EC00070478E48008B704770B505460E462C46FD
:102ED0000DB9002070BD41F2D01020808220A0707A
:102EE0000120E07020460AF06EFD0120F2E7024664
:102EF0000B4611460AB90020704741F2D0100880F5
:102F0000832088700120C87000BFF5E77C4800214D
:102F1000016001207A490880704779490968016099
:102F2000704770B505460E462C460DB9002070BDA1
:102F30004FF48F5020808220A0700220E070204645
:102F40000AF041FD0120F2E702460B4611460AB99C
:102F5000002070474FF48F50088083208870022033
:102F6000C8700120F5E701B56648BDF80010018082
:102F700008BD70B505460E462C460DB9002070BD43
:102F800041F2F01020808220A0700120E0702046E5
:102F90000AF019FD0120F2E710B5202300210246B6
:102FA00000BF05E003EB03241480921C4C1CE1B22B
:102FB0000829F7DB10BD0FB410B5142202A952483E
:102FC0000CF073FD10BC5DF814FB70B50C460023CB
:102FD00000224D490A2300BF09E00D882D1200F898
:102FE000015B11F8025B00F8015B551CEAB29A42E2
:102FF000F3DB70BD70B505460E462C460DB90020BA
:1030000070BD4FF4A15020808220A0700A20E07093
:103010003146201DFFF7D9FF0120F1E710B500244C
:1030200000BF18E0394830F8140090B137480088E4
:103030004FF6FF7188420CD0344830F8140042F249
:103040002001884205D02A2208212F480CF0A4FD37
:1030500003E0601CC4B2042CE4DB00BF00241BE0CE
:103060002A48083030F81400A0B1284800894FF6EB
:10307000FF7188420ED02548083030F8140042F223
:103080002001884206D02A2208211F4808300CF06F
:1030900083FD03E0601CC4B2042CE1DB00BF10BD63
:1030A0000FB410B5142202A918480CF0FEFC10BC95
:1030B0005DF814FB10B504461422144920460CF0A8
:1030C000F4FC10BD70B505460E462C460DB9002027
:1030D00070BD4FF4A25020808220A0700A20E070C2
:1030E00020460AF070FC0120F2E70000780E002074
:1030F000B67E0020CA7E00202E0A0020227E0020FC
:10310000300A0020340A0020F67E0020E27E0020F3
:1031100002460B4611460AB9002070474FF4A250F0
:103120000880832088700A20C8700120F5E708B560
:10313000BB4800880090BDF80010084608BD01B5E6
:10314000B748BDF80010018008BD0FB410B51A22B1
:1031500002A9B4480CF0A9FC1A22B249B2480CF0FA
:10316000A4FC10BC5DF814FB10B504461A22AD494E
:1031700020460CF09AFC10BD10B500240A22AA4982
:10318000A8480CF066FC58B1A748A6490A68026036
:103190004A684260098901810120A149087001241F
:1031A000204610BD0020002100BF0FE09D4A32F8EC
:1031B0001120FF23B3EB122F04D09A4A12F81120EA
:1031C000FF2A01D1002015E04A1CD1B20429EDDB11
:1031D000944AD288FF23B3EB122F0AD0914A9279F6
:1031E000FF2A06D08F4A12894FF6FF739A4200D108
:1031F000012000BF704710B500240A228A490A3115
:1032000088480A300CF025FC68B187480A308549A7
:103210000A310A6802604A68426009890181012016
:103220007F4948700124204610BD0020002100BFC6
:1032300011E07C4A0A3232F81120FF23B3EB122F3F
:1032400005D0784A0A3212F81120FF2A01D1002055
:1032500015E04A1CD1B20429EBDB724A128AFF2323
:10326000B3EB122F0AD06F4A127CFF2A06D06D4AA8
:10327000528A4FF6FF739A4200D1012000BF704777
:1032800070B505460E462C460DB9002070BD4FF4B2
:10329000A35020808220A0700D20E07020460AF00C
:1032A00092FB0120F2E702460B4611460AB90020C4
:1032B00070474FF4A3500880832088700D20C87099
:1032C0000120F5E701B55948BDF80010018008BD9F
:1032D00008B5564800880090BDF80010084608BDA3
:1032E00070B505460E462C460DB9002070BD4FF452
:1032F000A45020808220A0700120E07020460AF0B7
:1033000062FB0120F2E702460B4611460AB9002093
:1033100070474FF4A4500880832088700120C87043
:1033200000BFF5E708B542480068009008BD01B548
:103330003F480099016008BD70B505460E462C4611
:103340000DB9002070BD4FF4A55020808220A070E0
:103350000220E07020460AF036FB0120F2E7354AF1
:10336000108051800022334B9A8070477CB54FF01B
:10337000FF34684600F0BAF82E48808838B32D49EB
:1033800008880CF0F7FC054600990CF09FFC08D16A
:10339000284948880CF0EEFC054601990CF096FC93
:1033A00018D0244800884A2812DC2248008828289F
:1033B0000EDB2048408801280ADB1E48408816287A
:1033C00006DB1C4A5188108800F036F8002402E021
:1033D000012400E0012420467CBD70B505460E4660
:1033E0002C460DB9002070BD4FF4A85020808220DB
:1033F000A0700320E07020460AF0E5FA0120F2E711
:1034000002460B4611460AB9002070474FF4A850F7
:103410000880832088700320C8700120F5E7000031
:10342000360A00201E7F0020387F0020380A002046
:103430003A0A00203E0A00203EB505460C462846C2
:103440000CF098FCFA49086020460CF093FCF8490F
:10345000486003C9CDE900010821684602F02CFD4F
:103460008DF8080009226946442003F086F90922F4
:10347000694640F2444009F031FB3EBD00B587B0DB
:10348000092204A9442003F083F9092201A940F28A
:10349000444009F038FB082104A802F00DFD9DF816
:1034A000181088420AD1E248DDE9041206C0092258
:1034B00004A940F2444009F011FB15E0082101A8DD
:1034C00002F0FAFC9DF80C10884209D1D848DDE9D9
:1034D000011206C0092201A9442003F04EF903E0BD
:1034E00014214720FFF7A8FF07B000BDD04A06CA45
:1034F000C0E9001270477047CE4800887047CD4938
:103500000880704708B5CB480088ADF8000002215C
:10351000684602F0D1FC8DF80200032269461320B0
:1035200003F02BF90322694640F2134009F0D6FA62
:1035300008BD1CB5032201A9132003F029F90322B9
:10354000694640F2134009F0DEFA022101A802F0B8
:10355000B3FC9DF8061088420ED19DF804009DF83A
:10356000051000EB0120B3490880032201A940F2B5
:10357000134009F0B3FA1AE00221684602F09CFCFD
:103580009DF8021088420DD19DF800009DF80110B1
:1035900000EB0120A749088003226946132003F0AD
:1035A000ECF804E00120A3490880FFF7ABFF1CBD45
:1035B000A048C08870479F49C880704708B59D489B
:1035C000C088ADF800000221684602F075FC8DF855
:1035D0000200032269461C2003F0CFF8032269464B
:1035E00040F21C4009F07AFA08BD1CB5032201A97B
:1035F0001C2003F0CDF80322694640F21C4009F07C
:1036000082FA022101A802F057FC9DF806108842B8
:103610000ED19DF804009DF8051000EB01208549AE
:10362000C880032201A940F21C4009F057FA1AE0B1
:103630000221684602F040FC9DF8021088420DD13C
:103640009DF800009DF8011000EB01207949C88029
:10365000032269461C2003F090F804E0022075491B
:10366000C880FFF7ABFF1CBD10B504460E227149A0
:10367000083120460CF019FA10BD10B504460E2290
:1036800021466C4808300CF010FA10BD1FB50E2210
:103690006849083168460CF008FA0E21684602F0C5
:1036A0000BFC8DF80E000F2269461F2003F065F811
:1036B0000F22694640F21F4009F010FA1FBD00B505
:1036C00089B00F2205A91F2003F062F80F2201A97B
:1036D00040F21F4009F017FA0E2105A802F0ECFB9A
:1036E0009DF8221088420CD10E2205A951480830BD
:1036F0000CF0DBF90F2205A940F21F4009F0EEF9AA
:103700001BE00E2101A802F0D7FB9DF812108842A1
:103710000BD10E2201A9474808300CF0C6F90F2240
:1037200001A91F2003F029F807E020220E214148BB
:1037300008300CF031FAFFF7A9FF09B000BD3D4891
:10374000408870473B494880704708B539484088F1
:10375000ADF800000221684602F0AEFB8DF80200D1
:1037600003226946162003F008F80322694640F256
:10377000164009F0B3F908BD1CB5032201A91620B3
:1037800003F006F80322694640F2164009F0BBF93F
:10379000022101A802F090FB9DF8061088420ED18C
:1037A0009DF804009DF8051000EB01202149488098
:1037B000032201A940F2164009F090F91AE0022113
:1037C000684602F079FB9DF8021088420DD19DF801
:1037D00000009DF8011000EB0120164948800322EB
:1037E0006946162002F0C9FF04E0642011494880B0
:1037F000FFF7ABFF1CBD0F48808870470D498880DC
:10380000704708B50B488088ADF800000221684673
:1038100002F052FB8DF8020003226946192002F0E3
:10382000ACFF0322694640F2194009F057F908BD80
:10383000CC0E0020527F00201CB5032201A91920C4
:1038400002F0A6FF0322694640F2194009F05BF935
:10385000022101A802F030FB9DF8061088420ED12B
:103860009DF804009DF8051000EB0120A349888015
:10387000032201A940F2194009F030F91AE00221AF
:10388000684602F019FB9DF8021088420DD19DF8A0
:1038900000009DF8011000EB012098498880032268
:1038A0006946192002F069FF04E096209349888058
:1038B000FFF7A7FF1CBD10B5044610229049204613
:1038C0000CF0F3F810BD1FB5102269468C480CF0BF
:1038D000ECF81FBD00B585B01022894968460CF090
:1038E000E4F81021684602F0E7FA8DF81000112282
:1038F00069462E2002F041FF1122694640F22E4017
:1039000009F0ECF805B000BD00B58FB07D4803C8E4
:10391000CDE903017B49083103C9CDE90101112239
:103920000AA92E2002F034FF112205A940F22E40F0
:1039300009F0E9F810210AA802F0BEFA9DF8381043
:1039400088420FD16E480A9901600B9941600C9929
:1039500081600D99C16011220AA940F22E4009F040
:10396000BDF821E0102105A802F0A6FA9DF8241068
:1039700088420ED162480599016006994160079915
:1039800081600899C160112205A92E2002F0F5FE80
:103990000AE05B48039901600499416001998160E4
:1039A0000299C160FFF796FF0FB000BD08B55648F9
:1039B0000068009008BD01B553480099016008BD3A
:1039C0001CB55148006800900421684602F074FA62
:1039D0008DF80400052269463F2002F0CEFE052244
:1039E000694640F23F4009F079F81CBD00B585B04A
:1039F00046A000680090052203A93F2002F0C8FEFF
:103A0000052201A940F23F4009F07DF8042103A8F6
:103A100002F052FA9DF81010884209D13A480399F1
:103A20000160052203A940F23F4009F057F815E074
:103A3000042101A802F040FA9DF80810884208D13C
:103A4000314801990160052201A93F2002F095FE4D
:103A500004E02D4800990160FFF7B2FF00212A48D9
:103A600001F028F905B000BD10B586B00020029025
:103A7000039004900590FEF784FDFEF7DCFDFFF750
:103A80003BFD0446FEF716FEFFF792FD0446FEF7E7
:103A9000D7FDFFF731FD0446FEF70FFEFFF788FD67
:103AA0000446FEF7D0FDFFF74AFE0446FEF7B6FED9
:103AB00002A8FFF7D9FD02A8FEF76EFEFFF79BFEF6
:103AC0000446FEF740FFFFF771FF0190FEF7E1FEAD
:103AD00006B010BD10B5FFF7D1FCFFF72AFDFFF7C8
:103AE00084FDFFF749FEFFF7EAFDFFF7A5FE01F0B1
:103AF000F2FBFFF709FFFFF779FF10BD527F0020AF
:103B0000687F002010010108C80E0020FFFFFFFFA2
:103B1000FE487047FE487047FE48704710B50B21BD
:103B2000FC480CF063F801F015F8FB49086010BD83
:103B3000FA48002101604160816070470021002047
:103B400000BF06E0F24A525C0AB9421CD0B24A1CDD
:103B5000D1B20C29F6DB70470021002000BF07E03E
:103B6000EB4A525C022A01D1421CD0B24A1CD1B2AB
:103B70000C29F5DB70470021002000BF0BE0E44A70
:103B8000525C012A03D0E24A525C022A01D1421C53
:103B9000D0B24A1CD1B20C29F1DB704770B50024B9
:103BA000FFF729FE0646FFF7D7FF054600BF0DE0E9
:103BB000D748005D012807D1D748006850F8240095
:103BC000B04201DB681CC5B2601CC4B20C2CEFDB38
:103BD000284670BD3EB504460025D14A07CA8DE887
:103BE0000700CE48407A042866D1CE4850F8240019
:103BF00030B1012812D0022837D003285BD14AE027
:103C0000C94901EB8400002102F071F9C54850F860
:103C10002400401CC34941F824004CE0C24901EB98
:103C200084004FF4FA6102F062F9C0B9BF4901EBB8
:103C30008400002102F05BF92146002001F085FCA0
:103C40000320019002946946022009F0A3FFB548C1
:103C500050F82400401CB34941F8240004E000203F
:103C6000B04941F82400012525E0B04901EB84006A
:103C7000642102F03CF901280CD1AC4901EB84002D
:103C8000002102F034F9A74850F82400401CA5494F
:103C900041F824000FE0204601F060FF012805D123
:103CA0000020A04941F82400012503E001209D499E
:103CB00041F8240000BF00E0012528463EBD3EB586
:103CC0000446974A0C3207CA8DE80700984901EB71
:103CD0008400C82102F00BF901280AD1944901EBB4
:103CE0008400002102F003F902946946022009F0E1
:103CF00051FF3EBD3EB504460025894A183207CA29
:103D00008DE807008B4850F8240030B1012812D00C
:103D1000022837D003285BD14AE0874901EB8400B1
:103D2000002102F0E4F8834850F82400401C814947
:103D300041F824004CE0804901EB84004FF4FA6123
:103D400002F0D5F8C0B97D4901EB8400002102F0F2
:103D5000CEF82146012001F0F8FB032001900294E7
:103D60006946022009F016FF724850F82400401CF2
:103D7000704941F8240004E000206E4941F8240015
:103D8000012525E06D4901EB8400642102F0AFF8C4
:103D900001280CD1694901EB8400002102F0A7F849
:103DA000644850F82400401C624941F824000FE0A8
:103DB000204601F0D3FE012805D100205D4941F8DD
:103DC0002400012503E001205A4941F8240000BFE6
:103DD00000BF28463EBD3EB50024514A243207CAE2
:103DE0008DE8070000BF66E0554800680121A1404A
:103DF000084000285AD05348005D10B1012854D122
:103E00001FE02146002001F0A0FB02946946022039
:103E100009F0C0FE4C48006820F4803000F5803086
:103E200049490860204609F052FB484901EB8400EB
:103E3000002102F05CF84348005D401C41490855F0
:103E400033E0424901EB8400C82102F050F858B336
:103E5000204609F09CFB204609F0F9FB38B13848B0
:103E600001680120A0408143354801601CE03849C9
:103E700001EB840040F2F91102F039F8A0B13548A5
:103E8000015D005D401C334A1055032909DB002009
:103E9000114608552A4801680120A040814328485E
:103EA000016000202749085500BF02E00020254995
:103EB0000855601CC4B20C2C96DB2148006810B970
:103EC00025481F4948603EBD1D48006818B1AFF243
:103ED000F9001B494860704770B5044600251F482B
:103EE000005D092873D2DFE800F0054CC9FAF9F843
:103EF000F7F6F5002046FFF76DFE012840D1204679
:103F000009F0E5FA164901EB84002BE0788F0020D8
:103F1000149000208C900020D40E002008900020E7
:103F20002001010898900020C8900020F8900020FF
:103F3000289100205891002088910020B8910020FD
:103F4000D80E0020E8910020CC090020F491002038
:103F50002492002054920020C93E00086092002064
:103F60006C920020002101F0C2FFF74901EB8400B0
:103F7000002101F0BCFFF548005D401CF3490855E5
:103F800020E2F34901EB8400C82101F0B0FF0028D2
:103F900073D0204609F0FBFA204609F058FB40B3E5
:103FA000EC48407A012813D1E848005D401CE749FD
:103FB0000855E94901EB8400002101F098FFE7482A
:103FC000006820F00100401CE449086055E0F8E179
:103FD0000520DE490855E24901EB8400002101F08B
:103FE00086FFDE48006820F00200801CDB49086084
:103FF00043E0D54901EB840040F2F91101F077FF6D
:1040000000283AD0D748015D005D401CD54A1055C4
:1040100003292FDB002011460855FF20D2490855FF
:10402000CC48407A01280BD101250F20FEF713F868
:10403000CA48006820F080008030C84908600BE062
:1040400002251020FEF707F8C448006820F48060BD
:1040500000F58060C1490860BE49CB7A887A4A1C65
:10406000294601F0A3F9FFF763FDC0480078401E20
:10407000BE4908700020B5490855A3E1B64901EBD7
:1040800084004EF6602101F032FF48BB2046FFF766
:1040900016FEB548005D50B1B54901EB8400002122
:1040A00001F025FFA948005D401CA849085520469D
:1040B00009F0CDFA58BBAC48005D40BBAC4901EB00
:1040C0008400002101F013FFA048005D401C9F49BF
:1040D00008551CE06AE15BE112E1EDE06BE017E0FE
:1040E000FFE7FE20A049085502209A4948729F48E0
:1040F0000078401E9D490870002094490855974853
:10410000006820F4804000F580409449086059E13F
:10411000974901EB840045F2F05101F0E8FE98BBAD
:104120002046FFF7CCFD204609F091FA58BB904994
:1041300001EB8400002101F0DAFE8E4901EB8400DE
:10414000002101F0D4FE8848005D06280AD12046EF
:10415000FFF7D0FD01280AD17C48005D401C7B4957
:10416000085504E07948005D401C784908557B48B3
:10417000006820F4004000F5004078490860002104
:104180007D4801F0B4FE15E0FFE7FE2076490855B2
:1041900002207049487275480078401E73490870C3
:1041A00000206A4908556D48006820F02000203042
:1041B0006A49086006E16F4901EB840041F28831E9
:1041C00001F095FE002860D06748005D012803D00B
:1041D0006548005D02280DD103255E49CB7A887AB7
:1041E0004A1C294601F0E2F803205A49487200208F
:1041F000C87246E05C48005D90B904255549CB7A09
:10420000887A4A1C294601F0D1F81720FDF723FFD0
:104210005248006820F0400040305049086022E0D9
:104220005148005D03280BD04F48005D042807D09B
:104230004D48005D052803D04B48005D072812D18A
:1042400005254449CB7A887A4A1C294601F0AEF804
:104250001B20FDF700FF4148006820F4805000F566
:1042600080503E490860FFF763FC40480078401EDC
:104270003E490870414800680121A14008433F4978
:10428000086000203149085515E02046FFF717FD6A
:104290004FF44861384801F02AFE01280BD1002173
:1042A000354801F024FE2D48006820F4004000F558
:1042B00000402A49086085E0294901EB840049F65D
:1042C000404101F014FEA8B9204609F0C0F9B0B988
:1042D000234901EB8400002101F009FE254901EB8F
:1042E0008400002101F003FE1848005D401C1749BE
:1042F000085504E01548005D801C1449085561E02C
:104300001C4901EB840040F6B83101F0F0FDB8B370
:104310001548005DA8B308250E49CB7A887A4A1C57
:10432000294601F043F81D20FDF795FE0748005D82
:10433000801C064908550948006820F4005000F523
:1043400000500649086022E09C9200206092002004
:104350006C92002008900020D8920020CC09002008
:1043600068930020CC920020149000208C900020B4
:104370000893002038930020E00E0020D80E002083
:1043800005E0FFE7F948005D401CF849085519E0D1
:104390000925F749CB7A887A4A1C294601F006F8A4
:1043A000F248005D401CF14908550BE0FFF7C0FBE7
:1043B000F0480078401EEF4908700020EB4908558E
:1043C00000E000BF00BF70BD70B504460025EA489C
:1043D000005D10B101286AD110E0204609F037F9DC
:1043E00058B9FD20E5490855E348005D401CE24905
:1043F00008550021E24801F07AFD59E04FF47A7146
:10440000DF4801F074FD01284DD10021DC4801F0A6
:104410006EFDDA48005DFD2848D0D848005D0128CF
:1044200003D0D648005D02280AD10625D049CB7AB0
:10443000887A4A1C294600F0B9FF1C20FDF70BFEC4
:10444000CE48005D03280BD0CC48005D042807D07F
:10445000CA48005D052803D0C848005D072812D16E
:104460000725C349CB7A887A4A1C294600F09EFF6B
:104470001E20FDF7F0FDC348006820F4805000F5D1
:104480008050C0490860FFF753FB0020BA49085527
:10449000BA48005D50B1BC4800680121A140084302
:1044A000B949086002E02046FFF709FC00E000BFC0
:1044B00000BF70BD70B50025002400BF0CE004EB08
:1044C0004400B24901EB8000407A012802D1012565
:1044D000284670BD601CC4B20C2CF0DBFFF72EFB2D
:1044E000012808DBFFF75AFBA2490978491C8842DA
:1044F00001DB032500E002252846EAE70021002031
:1045000000BF0AE001EB4102A04B03EB8202527AAA
:104510000AB9084603E04A1CD1B20C29F2DB00BFFD
:10452000704770B50126B51E0024FFF707FB28B1C0
:10453000FFF734FB8F490978884202DA00263046BB
:1045400070BD93480078401CC4B206E08B48005D03
:1045500008B965B203E0601CC4B20C2CF6DB00BFE6
:10456000681C78B9002406E08448005D08B965B28B
:1045700007E0601CC4B2864890F90000401C8442E9
:10458000F2DB00BF01207A494872CD728048057085
:104590003046D5E710B502460021012000BF1AE0E1
:1045A00001EB4103794C04EB83035B7A042B06D0C7
:1045B00001EB410304EB83035B7A022B09D101EB8E
:1045C0004103724C04EB8303DB7A934201D1002058
:1045D00003E04B1CD9B20C29E2DB00BF10BD2DE972
:1045E000F041FFF708F906464FF0FF350024FFF7CA
:1045F000D5FA88B95E49887A00234A1C0B2100F05D
:10460000D5FEFFF795FA5B480078401E59490870BF
:104610001420FDF720FD76E0FFF79EFA01282BDB42
:104620005C480078401CC4B20BE05448005D02288E
:1046300005D12046FFF7AEFF08B165B203E0601C6C
:10464000C4B20C2CF1DB00BF681C00284BD1002445
:104650000BE04A48005D022805D12046FFF79AFF8B
:1046600008B165B207E0601CC4B24A4890F9000086
:10467000401C8442EDDB36E046480078401CC4B262
:1046800011E03E48005D01280BD14348006850F816
:104690002400B04205DB2046FFF77CFF08B165B27D
:1046A00003E0601CC4B20C2CEBDB00BF681CD0B96B
:1046B000002411E03148005D01280BD13648006824
:1046C00050F82400B04205DB2046FFF763FF08B135
:1046D00065B207E0601CC4B22E4890F90000401C8F
:1046E0008442E7DB00BF042021494872CD72FEF707
:1046F00003FF07461E49887A3A460C2100F03DFE2A
:104700002448057000BFBDE8F08110B50446012CB7
:1047100006D0022C0AD0032C0DD0042C0ED100E0C0
:1047200000BF1349C87AFFF7D7FB1CE01049C87ACD
:10473000FFF74AFE17E0FFF752FF14E0FFF7F1FE24
:1047400080B90B49887A00234A1C0A2100F02EFE0A
:10475000FFF7EEF907480078401E0649087014205C
:10476000FDF779FC00BF00BF10BD00006092002083
:10477000089000208C900020989300201490002036
:10478000A4930020CC090020D80E0020788F0020B0
:10479000E40E0020E50E0020D40E0020E048807AD0
:1047A0007047DF48407A704710B5002008F0C4FF1A
:1047B00030B1DC480078401C40B2DA49087005E0AE
:1047C000D8480078401E40B2D6490870D54890F9C4
:1047D000000005280CDB0520D2490870002008F0F5
:1047E000F9FF002009F008F80120CD49087288720D
:1047F000CC4890F9000010F1050F05DCFB20C949F9
:1048000008700020C6498872012008F095FF50B159
:10481000FEF7CEFE012806D1C3480078401C40B206
:10482000C149087005E0C0480078401E40B2BE494A
:104830000870BD4890F9000005280BDB0520BA4937
:104840000870002008F0C6FF002008F0D5FF012006
:10485000B3494872B44890F9000010F1050F05DC27
:10486000FB20B14908700020AD494872AD4890F96D
:10487000000010F1050F0EDCAB4890F9000010F1BC
:10488000050F08DC002008F0AEFF002008F0B9FF9B
:104890000020A349087210BD10B5022008F04CFF9B
:1048A00030B1A2480078401C40B2A049087005E031
:1048B0009E480078401E40B29C4908709B4890F981
:1048C0000000052805DB052098490870012094495F
:1048D0008880964890F9000010F1050F05DCFB2058
:1048E0009249087000208E49888010BD8C488088CD
:1048F00070478B48C088704770B50024FBF717FDE0
:10490000054600BF08E00120A040284010B1FC206F
:1049100087490855601CC4B20C2CF4DB70BD3EB551
:1049200000240025834A07CA8DE807007C484078A8
:10493000012834D12EE002F039FB25B1012D0CD035
:10494000022D26D121E000217B4801F0D0FA20463B
:1049500008F0BDFD681CC5B21BE0C821764801F017
:10496000C6FA88B10021744801F0C1FA204608F067
:104970000EFE2146002000F0E8FD02946946022068
:1049800009F008F9681CC5B203E0601CC4B2002538
:1049900000BF00BF0C2CCEDB0020614948703EBD3B
:1049A0000EB5644A0C3207CA8DE807005C4880786F
:1049B00000283FD06148007820B1012810D002289B
:1049C00037D12CE05649C87808F081FD00215C48B9
:1049D00001F08DFA59480078401C5849087028E0C9
:1049E000C821574801F083FAC0B10021544801F0B2
:1049F0007EFA4B49C87808F0CAFD4948C1780020C2
:104A000000F0A3FD4648C07802906946022009F0F4
:104A1000C1F84A480078401C4849087009E0002065
:104A20003F49887000213E48C1700020434908700A
:104A300000BF00BF0EBD3EB53E4A183207CA8DE822
:104A40000700002436480078002839D14FF47A71E5
:104A50003C4801F04CFA012832D10021394801F0DC
:104A600046FA3948007808F0F2FD90B930483649E6
:104A70000978405C06280BD02D4833490978405C02
:104A8000012805D02A4830490978405C022800D125
:104A900001242D480178204600F057FD2A4800786F
:104AA00002906946022009F075F827480078401CFA
:104AB00025490870084600780C2801D100200870AC
:104AC0003EBDAFF6FB3021494860FFF727F84FF4B1
:104AD0007A7001F024FA00BF1C494868804702F050
:104AE00065FA00F039F800F084F808F04DFA01F0AA
:104AF00061FBFFF759FEFFF712FFFFF751FFFFF7CA
:104B0000CBFEFFF7F9FE142001F009FAE4E710B537
:104B100004230F4A0021AFF2550001F063FE10BDDF
:104B20008C900020E60E0020E70E0020E80E00200A
:104B30001490002050010108EC0E0020F40E00201B
:104B4000F00E0020F80E0020F50E0020D80E0020F8
:104B5000748F0020544870477FB5002400200290D5
:104B60000390FEF7D7FF05464FF47A714F4801F0E6
:104B7000BEF960B300214D4801F0B9F900BF24E04F
:104B8000285D012802D0285D02281CD102A801F06E
:104B90001FFFDDE9020101F059FF064605F118008B
:104BA00000EBC40001680091406801460190009844
:104BB00001F04CFF311A3C48303050F824000844D2
:104BC000394941F82400601CC4B20C2CD8DB7FBDED
:104BD00010B504469022344920460AF066FF10BD05
:104BE00010B50446902221462F4830300AF05DFF70
:104BF00010BD00B5B3B0FEF7BEFF012818DB40F6CC
:104C0000B8312B4801F073F990B10021284801F028
:104C10006EF90DF10600FFF7DBFFA5208DF804000B
:104C2000AA208DF80500C82201A9002007F056FF30
:104C300033B000BD01E0411E88B20028FBDC7047A4
:104C400010B5044607E0601E84B241F28830FFF7D9
:104C5000F1FF02F0ABF9002CF5DC10BD00B5B3B0EC
:104C60001920FFF7EDFFC82201A9002007F04BFF34
:104C70009DF80500AA2809D11920FFF7E1FF0DF1E1
:104C80000600FFF7ADFF1920FFF7DAFF33B000BDD4
:104C90000EB500208DF800008DF801000222694653
:104CA00007F01CFF0EBD0000D4930020FC0E002076
:104CB000000F002001EB4102FB4B03EB8202036873
:104CC0001360704701EB4102F84B03EB42020368AB
:104CD0001360704710B504461822F54920460AF0C3
:104CE000E4FE10BD70B59CB005460E462C4614B9C6
:104CF00000201CB070BD02202070608043F2304064
:104D0000A0803222214601A80AF0CFFE0120F0E760
:104D100070B59CB004460E462546A879E449087152
:104D20003222294601A80AF0C0FE01201CB070BD45
:104D300070B59CB005460E462C4614B900201CB038
:104D400070BD022020700920608043F23240A080B4
:104D5000D7484079E071D648407902280DDAD44826
:104D6000407900EB4000D04901EB80010A6804F172
:104D70000800A2608988A18106E0CB49CA6804F1D5
:104D80000800A260098AA1813222214601A80AF006
:104D90008CFE0120D3E730B502460B46114609B917
:104DA000002030BD022008700920488043F23940BD
:104DB0008880BF484079C871BD48407902280DDA23
:104DC000BB48407900EB4000B74C04EB8004D4F8BA
:104DD000065001F108008D6064898C810120E0E7B4
:104DE00070B59CB004460E462546E879B049087176
:104DF0003222294601A80AF058FE01201CB070BDDD
:104E000030B502460B46114609B9002030BD0220DC
:104E100008700920488043F235408880A4484079D2
:104E2000C871A348407902280CDAA148407900EB08
:104E300040009E4C04EB4004256801F108008D60A1
:104E4000A4888C810120E1E770B59CB005460E4630
:104E50002C4614B900201CB070BD02202070042024
:104E6000608043F23340A08091484079E0719048DF
:104E7000817921723222214601A80AF016FE012012
:104E8000E9E770B59CB005460E462C46207A884965
:104E900008710846007959280FD1A07949798842CC
:104EA0000BD1E07982498979884206D1102204F138
:104EB00009017F48C01D0AF0F8FD3222214601A8F1
:104EC0000AF0F3FD01201CB070BD10B502460B4680
:104ED000114609B9002010BD022008700820488042
:104EE00043F23840888072484079C87170488479AC
:104EF0000C720446D4F80740C1F809400120EAE7E3
:104F000010B502460B461146087A592811D1887906
:104F1000674C6479A04208D1C879654CA479A04255
:104F200003D15920624C207106E04E20604C207164
:104F300002E0087A5E4C2071012010BD5C480079C7
:104F4000592801D1012070470020FCE70020584972
:104F500008717047564A50719171704710B50446F8
:104F60005348407904EBC401524A02F811005048FA
:104F7000807904EBC40102EB4101487004EBC401E9
:104F800002EB4101881C10224949C91D0AF08DFD20
:104F900010BD10B504464422464920460AF0CAFD19
:104FA00010BD10B5442143480AF020FE10BD30B5B5
:104FB00087B00446404A07CA04AB07C30025002057
:104FC0000290039024B9182139480AF0EDFDC5E09C
:104FD0003748007830B1012831D002286FD003283B
:104FE0006CD197E002E0052000F099FF002101203C
:104FF00008F033FE0028F6D12D484088402809D11A
:105000002B480079592805D129480078401C2849A7
:10501000087013E026484088402805D124480079CC
:10502000332801D1012509E040200590204948801E
:105030000020087104A9012008F0ACFD8DE002E019
:10504000052000F06CFF0021012008F006FE00287A
:10505000F6D11748408880281AD115480079592878
:1050600016D16846FBF798F9DDE90001CDE90201A8
:105070009DF808002D2805D10D480078801C0C49AA
:1050800008700FE00A480078401C0949087009E0E0
:1050900080200590064948800020087104A901205D
:1050A00008F078FD59E00AE0040F00201C0F0020F2
:1050B000649400207C940020740101084BE002E01D
:1050C000052000F02CFF0021012008F0C6FD00287B
:1050D000F6D16A484088B0F5807F05D167480079ED
:1050E000592801D1042514E064484088B0F5807F38
:1050F00004D16248007908B102250AE04FF48070BB
:1051000005905E4948800020087104A9012008F03C
:1051100041FD22E002E0052000F001FF0021012016
:1051200008F09BFD0028F6D154484088B0F5006F88
:1051300005D152480079592801D105250AE04FF4DC
:10514000006005904D4948800020087104A90120A5
:1051500008F020FD01E0032500BF00BF284607B08E
:1051600030BD3EB50446464A07CA8DE80700002513
:1051700024B9182141480AF017FD7CE03F48007827
:1051800020B1012825D0022872D145E002E0052097
:1051900000F0C5FE0021012008F05FFD0028F6D1D7
:1051A00036484088402809D134480079592805D12B
:1051B00032480078401C3149087009E040200190D5
:1051C0002E494880002008716946012008F0E2FC61
:1051D00050E002E0052000F0A2FE0021012008F0CE
:1051E0003CFD0028F6D125484088802809D1234875
:1051F0000079592805D121480078401C1F490870C2
:1052000009E0802001901D4948800020087169460E
:10521000012008F0BFFC2DE002E0052000F07FFE39
:105220000021012008F019FD0028F6D1134840881C
:10523000B0F5007F05D111480079592801D1042526
:1052400014E00E484088B0F5007F04D10B48007987
:1052500008B102250AE04FF48060019007494880B8
:10526000002008716946012008F094FC02E0FFE785
:10527000032500BF00BF28463EBD00006494002007
:1052800080010108A048008841F28831884201DD90
:10529000084670479C480088FBE700209A49088030
:1052A000704738B5044620128DF80000E0B28DF842
:1052B00001000221684600F0FFFD8DF80200032284
:1052C0006946102001F059FA032269464FF48260C2
:1052D00007F004FC38BD1CB5032201A9102001F021
:1052E00057FA032269464FF4826007F00CFC022152
:1052F00001A800F0E1FD9DF8061088420ED19DF84E
:1053000005009DF8041000EB01207F49088003226E
:1053100001A94FF4826007F0E1FB2DE0022168460D
:1053200000F0CAFD9DF8021088420DD19DF80100E1
:105330009DF8001000EB01207349088003226946A4
:10534000102001F01AFA17E000206F4908808DF84C
:1053500004008DF80500022101A800F0ADFD8DF8D4
:105360000600032201A9102001F007FA032201A977
:105370004FF4826007F0B2FB1CBD70B504460D46C9
:105380001646A520614901EB441108705F4800EB07
:10539000441045705D4901EB441101F10C0001F02E
:1053A00017FB5A4800EB4410868370BD2DE9F0418D
:1053B00004460D4616461F46544800EB44104570FF
:1053C000524800EB44108772504901EB441101F13F
:1053D000140001F0FDFA4D4800EB4410316840F82C
:1053E000021F71684160494A02EB44121E32474B6A
:1053F00003EB4413D21A91B2444A02EB441000F07A
:105400005BFD424901EB4411887702E0032000F084
:1054100086FD3F4800780128F8D001203C490870FB
:105420003948008841F2883190FBF1F201FB12000B
:10543000002101EB0028354901EB441020224146B0
:1054400009F04BF80020324908702F480088401CB2
:105450002D4908800846008842F21071884205DB19
:1054600029480088A0EB6100274908802648008869
:10547000FFF717FF254901EB441020210AF094FBA8
:10548000BDE8F08170B505460C461F48008885428E
:1054900033DA41F2883085422FDA1B480088401BFE
:1054A000401E85B202E0032000F039FD1948007863
:1054B0000128F8D001201749087041F2883095FB87
:1054C000F0F100FB1150002101EB002620223146B3
:1054D000204608F0DCFF00200E4908702078A5283F
:1054E0000BD104F11E00001B81B2204600F0E4FC49
:1054F000A17F884201D1012070BD202120460AF001
:1055000053FB0020F8E700002A0F0020049500203C
:10551000280F0020290F002010B50024FEF7FAFA0A
:10552000FE490860FFF716FBFD49086000BF09E06F
:10553000FB490968603101EB8400002100F0D7FCD1
:10554000601CC4B20C2CF3DB10BD10B5012807D1D0
:10555000012201EB8103F34C04EB83039A8006E004
:10556000002201EB8103EF4C04EB83039A800022BD
:1055700001EB8103EB4C04EB83031A7210BD3EB5C3
:105580000446E949D1E900028968CDE9012100908A
:10559000E2480068005DFF2871D0E0480068005DC7
:1055A000FE28F9D004EB8400DE4901EB80008089FD
:1055B000B0F5AF7F0BDB0620D849096808550120FC
:1055C00004EB8401D74A02EB8101487209E0002014
:1055D000D2490968085504EB8401D24A02EB8101E3
:1055E0004872CE480068005D06284DD104EB840067
:1055F000CC4901EB8000008AB8B904EB840001EBD0
:105600008000408A012804D0022803D003280BD14F
:1056100005E009E00120C1490968085504E00220BD
:10562000BE490968085500BF2EE004EB8400BD495F
:1056300001EB8000007CC0F3401020B10320B7498B
:105640000968085520E004EB8400B64901EB8000AE
:10565000008AC0F3402020B10420B04909680855F1
:1056600012E004EB8400AF4901EB8000007C00F005
:10567000010028B10520A9490968085504E03EE069
:105680000720A64909680855A4480068005D01285C
:1056900004D0A2480068005D02280DD1A348005D37
:1056A00050B90120A14908559C490968183101EBFE
:1056B000C40001F08DF922E098480068005DF0B95F
:1056C00000209A49085595480068183000EBC4003E
:1056D0000021016041609248006840F82410904920
:1056E0000968603101EB840041F2883100F0FFFB72
:1056F00028B100218A480068303040F8241004EBBB
:105700008400884901EB8000007C00F00100E8B3D0
:1057100082480068005DFF2808D080480068005D6E
:10572000FE2803D002207D49096808558048005DA5
:1057300005281BDA7F4901EB8400C82100F0D7FB64
:10574000012813D17B4901EB8400002100F0CFFB3D
:1057500021460020FFF7F9FE02946946022008F076
:1057600019FA7348005D401C7149085504EB840028
:105770006C4901EB80008089B0F5AF7F11DA002021
:105780006B4908556B4901EB840000E009E00021FA
:1057900000F0ADFB04EB8400624901EB80000021C6
:1057A00001823EBD2DE9F843064689461546002490
:1057B0000020009000BF00BF301900880090BDF8A5
:1057C000000000B2002811DDBDF8000000F00AFC66
:1057D00007464FF47A7007FB00F84FEA183005EBE4
:1057E0008501504A02EB8101488106E0002005EB6B
:1057F00085014C4A02EB81014881A01CC4B23019DA
:1058000000880090BDF8000000F0ECFB0746C7EBF5
:1058100007104FEA4018C8F30F3105EB8500414AE5
:1058200002EB80008181A01CC4B230190088009076
:10583000BDF8000000F0D6FB0746C7EB07104FEAA3
:105840004018C8F30F3105EB8500364A02EB8000A3
:10585000C181A41C201DC4B230190088009005EB42
:105860008500114601EB8000007C00F0010048B982
:10587000BDF8000000F0B6FB05EB8501294A02EBFC
:1058800081010882A01CC4B2A01DC4B230190088D6
:105890000090BDF8000000F0A5FB05EB8501214A52
:1058A00002EB81014882A01CC4B22846FFF767FEC4
:1058B000BDE8F8832DE9F8430646884614460025DE
:1058C000002000900027701900880090BDF80000AB
:1058D00000F088FB0746AD1C04EB8400114931F849
:1058E0002000B84207D1012004EB84010D4A02EBED
:1058F0008101887106E0002004EB8401094A02EB73
:1059000081018871281DC5B2701900880090BDF80A
:10591000000000F067FB0746A81C0DE02C0F0020DC
:10592000300F0020849600208C010108749700201D
:10593000809700208C970020C5B204EB8400FB49BF
:1059400001EB80004088B84207D1012004EB8401BC
:10595000F64A02EB8101C87106E0002004EB8401E5
:10596000F24A02EB8101C871BDE8F8832DE9F843E2
:105970000546884614460026002000900027A819F6
:1059800000880090BDF8000000F02CFB0746B61C14
:1059900004EB8400E54901EB80008088B84207D120
:1059A000012004EB8401E14A02EB8101087206E068
:1059B000002004EB8401DD4A02EB81010872BDE89E
:1059C000F88370B505460C461646022C0FD0082CFD
:1059D00007D0142C11D1324621462846FFF7E2FEAB
:1059E0000BE0324621462846FFF764FF05E03246C9
:1059F00021462846FFF7BAFF00BF00BF70BD10B5B3
:105A0000CC2807D1012201EB8103C84C04EB8303AE
:105A10001A7200BF00BF10BD70B505460E462C4679
:105A20000CB9002070BD6078042802D010280BD17A
:105A300005E02278A179E01DFFF7C3FF04E021789B
:105A40006088FFF7DCFF00BF00BF0120EAE70246E5
:105A50000B4611460AB9002070470B7004204870AD
:105A60004FF4C87048800A2088800120F4E702467D
:105A70000B4611460AB9002070470B70042048708D
:105A8000C8204880042088800120F5E702460B46A4
:105A900011460AB9002070470B7004204870CC20D2
:105AA00048800120888000BFF5E72DE9F0410646D7
:105AB0000D4614469E4930460AF070F907460AF032
:105AC00039F904EB8401994A22F8210099492846C2
:105AD0000AF064F907460AF02DF904EB8401934AB1
